:100000000C9411010C9439010C9439010C943901B0
:100010000C9439010C9439010C9439010C94390178
:100020000C9439010C9439010C94CA250C9439268E
:100030000C9439010C9439010C9439010C94390158
:100040000C9439010C94D4290C9439010C94390185
:100050000C9439010C9439010C9439010C946B28DF
:100060000C9439010C9439010C9439010C94390128
:100070000C9439010C9439010C9439010C94390118
:100080000C9439010C9439010C9439010C94390108
:100090000C94B5280C9439010C9439010C94390155
:1000A0000C9439010C9439010C943901084AD73B5E
:1000B0003BCE016E84BCBFFDC12F3D6C74319ABD37
:1000C00056833DDA3D00C77F11BED9E4BB4C3E915B
:1000D0006BAAAABE000000803F05A84CCDB2D44E4A
:1000E000B93836A9020C50B9918688083CA6AAAA4C
:1000F0002ABE000000803F00070605040100080A30
:100100000B0C0D0900000000240027002A002D0020
:10011000300000000000250028002B002E003100D8
:10012000040404040403040502020202040302029C
:10013000020206060606060604040202020404047D
:1001400008020110408040102040804080080204D6
:10015000018040201002011080102040402000004B
:10016000000200090F0000030401000C0000000061
:1001700000000000000000000000000000080B006C
:10018000020202000009040000010202000005242E
:1001900000100105240101010424020605240600C3
:1001A000010705810310004009040100020A000054
:1001B000000705020240000007058302400000041A
:1001C00003090412010002EF0201404123428000B2
:1001D000010102030141726475696E6F204C4C434A
:1001E0000047554E3449522050310005010902A103
:1001F000010901A10085010509190129081500253A
:1002000001750195088102050109300931150026A3
:10021000FF00350046FF00751095028102C0C00046
:10022000122A11241FBECFEFDAE0DEBFCDBF11E0EE
:10023000A0E0B1E0ECE6F6E602C005900D92A83D24
:10024000B107D9F724E0A8EDB1E001C01D92AD38A7
:10025000B207E1F711E0C1E1D1E004C02197FE014E
:100260000E940F33C031D107C9F70E94712A0C9444
:1002700034330C940000FC018091C902882311F1F1
:100280003FB7F89482E08093E9002091F200822F3A
:1002900090E01816190614F481E090E0882339F0F4
:1002A000289844E64093C8024091F10040832223FD
:1002B00039F02091F200211103C02BE62093E800D1
:1002C0003FBF08958FEF9FEF089540919C0250919A
:1002D0009D0220919A0230919B0242175307B4F479
:1002E0009091E8009570E1F39091E80092FD19C0BB
:1002F0008093F10080919C0290919D0201968F73F2
:100300009927892B19F48EEF8093E80080919C0245
:1003100090919D02019690939D0280939C0281E0B2
:10032000089580E00895EF92FF920F931F93CF936B
:10033000DF93F82E192FE62E042F81E0860F880F09
:100340000E94650183E00E946501CF2DD12FEC0E44
:10035000FD2EF11CCE15DF05B9F007FF13C0FE011D
:1003600084910E946501182F80E00E94650181231D
:1003700021968111EFCFDF91CF911F910F91FF90C7
:10038000EF9008958881EDCF81E0F5CFDF92EF9275
:10039000FF920F931F93CF93DF93D82E8A01EB0127
:1003A0007B01E40EF51ECE15DF0559F0D7FE12C015
:1003B000FE0184910E94650121968111F4CF0FEF17
:1003C0001FEFC801DF91CF911F910F91FF90EF9028
:1003D000DF9008958881EECF2FB7F89487708093CF
:1003E000E9009091E800892F807295FF04C09091F8
:1003F000F20080E4891B2FBF0895615030F02091F6
:10040000F100FC0120830196F8CF289884E68093C0
:10041000C80208958091920281110DC082E08093FC
:100420008E0284E080938F021092910210929002CB
:1004300081E0809392028EE892E008950F931F93DB
:10044000CF93DF931F92CDB7DEB782E0898342E47A
:1004500050E06DE771E080E80E94C6010E940A0248
:10046000DC0112960D911C910115110589F0D8013E
:10047000ED91FC910280F381E02DBE016F5F7F4F13
:10048000C801099597FD04C0F80100851185ECCFDE
:1004900089810F90DF91CF911F910F910895CF9394
:1004A000DF931F92CDB7DEB76983DC01ED91FC913C
:1004B0000280F381E02D41E050E0BE016F5F7F4F8D
:1004C00009950F90DF91CF91089583E08093E90023
:1004D0008091F200882319F08AE38093E800089560
:1004E00083E00E94EC0190E00895CF93DF931F9288
:1004F000CDB7DEB7FC018485958597FD08C02FEF49
:100500003FEF358724870F90DF91CF910895CE017B
:1005100001960E943B01019719F4898190E0F3CF85
:100520008FEF9FEFF0CF0F931F93CF93DF931F9227
:10053000CDB7DEB78C01FC018485958597FF0BC094
:10054000CE0101960E943B01019771F4898190E0F0
:10055000F80195878487F801848595850F90DF9150
:10056000CF911F910F9108958FEF9FEFF1CFFC0175
:100570008485958597FD0BC09FB7F89482E08093A2
:10058000E9008091F2009FBF90E0019608959FB727
:10059000F89482E08093E9008091F2009FBF90E0A0
:1005A0000895282F30E0F901E25AFE4F9491F901A5
:1005B000E15CFE4F8491205E3E4FF901249122239D
:1005C00009F430C09923E9F091509F30D0F4E92F1D
:1005D000F0E0E351FD4F0C940F331B031F03FC02AB
:1005E00013031703010301030103220328032C0350
:1005F0003003360301033A03909180009F77909374
:100600008000E22FF0E0EE0FFF1FEE5EFE4FA5919F
:10061000B4919FB7F894EC91611132C080958E230C
:100620008C939FBF0895909180009F7DE8CF90911B
:100630008000977FE4CF94B59F7794BDE2CF94B5C7
:100640009F7DFBCF909190009F7790939000D9CFA2
:10065000909190009F7DF9CF90919000977FF5CF7A
:100660009091C0009F779093C000CBCF9091C00035
:100670009F7DF9CF9091C200977F9093C200C1CF28
:100680008E2BCECFCF93DF9390E0FC01E15CFE4F49
:100690002491805E9E4FFC0184918823C9F090E0F4
:1006A000880F991FFC01EC5FFE4FA591B491FC01EE
:1006B000EE5EFE4FC591D49161110DC09FB7F894C5
:1006C0008C91209582238C938881282328839FBF37
:1006D000DF91CF910895623051F49FB7F8943C9127
:1006E000822F809583238C93E8812E2BEFCF8FB7B9
:1006F000F894EC912E2B2C938FBFEACF8251E82FE8
:10070000F0E0E850FF4FE49190917B008E2F880F2E
:10071000880F80729F7D892B80937B00E770E06457
:10072000E0937C0080917A00806480937A008091CD
:100730007A0086FDFCCF8091780090917900089531
:100740003FB7F89480918A0290918B02A0918C021D
:10075000B0918D0226B5A89B05C02F3F19F00196D8
:10076000A11DB11D3FBFBA2FA92F982F8827BC010B
:10077000CD01620F711D811D911D42E0660F771F33
:10078000881F991F4A95D1F708958F929F92AF9233
:10079000BF92CF92DF92EF92FF924B015C010E94D9
:1007A000A0036B017C010E94A0036C197D098E09D6
:1007B0009F09683E734081059105A8F321E0821AE4
:1007C0009108A108B10888EEC80E83E0D81EE11C8C
:1007D000F11C81149104A104B10429F7FF90EF905A
:1007E000DF90CF90BF90AF909F908F9008957F92B1
:1007F0008F929F92AF92BF92CF92DF92EF92FF9231
:100800000F931F93CF93DF93C82E8B017A018091B2
:10081000C902811110C08FEF9FEFDF91CF911F911F
:100820000F91FF90EF90DF90CF90BF90AF909F908F
:100830008F907F9008958091A00280FF05C08091E5
:10084000E00082608093E000CE2DDF2DD12C8AEF76
:10085000B82E8C2D8770982E8C2D8072882E8C2D22
:100860008074782E9AE3A92E209719F4DD2009F4DC
:1008700052C08C2D0E94EC0181110AC0BA94BB2099
:1008800051F261E070E080E090E00E94C503ECCF9F
:100890008C171D0611F00CF08C2F9FB7F8949092D6
:1008A000E9002091E80025FD02C09FBFDDCF282F81
:1008B00030E0C21BD30B882029F08150A0F01092A9
:1008C000F100FBCFF801C7FC0AC0815050F0419104
:1008D0004093F100FACF44914093F100319681505A
:1008E000D0F7020F131FDD2021F0A092E800D12CD9
:1008F000DCCF8091E80085FD07C0A092E800DD24F0
:10090000D394209791F2F3CF209779F6772069F26C
:10091000A092E800CACF5D9884E680939F02C70149
:100920007CCFCF93DF93EC0180911F01882331F0BE
:1009300083E00E94F7031816190634F081E090E076
:100940009B838A8380E090E0DF91CF9108952FB759
:10095000F89460918602709187028091880290914C
:1009600089022FBF08950F931F930E94A7046093DD
:1009700026037093270380932803909329038EE125
:1009800093E00E94930297FF1DC00E94A70400916C
:100990002603109127032091280330912903601B1F
:1009A000710B820B930B0091220310912303209172
:1009B0002403309125036017710782079307F8F22B
:1009C0008FEF9FEF1F910F910895CF92DF92EF92DB
:1009D000FF92CF930E94B304FC0197FD4EC08D326D
:1009E000910521F0C0970A9708F040C0C12CD12C86
:1009F0007601C0E0E130F105D1F0ED32F105D9F139
:100A0000CF01C0970A9798F4AAE0B0E0A701960139
:100A10000E944C306F01FF0FEE08FF08C60ED71E74
:100A2000E81EF91E80E3C81AD108E108F1088EE13A
:100A300093E00E9475020E94B304FC01C0970A97DC
:100A4000C8F2E130F105B1F2CC2341F0F094E0942A
:100A5000D094C094C11CD11CE11CF11CC701B6018B
:100A6000CF91FF90EF90DF90CF9008958EE193E0CB
:100A70000E947502AFCFC1E0DACFC12CD12C760134
:100A8000EDCF20916002260F3327331F213231052D
:100A9000ECF42091F002FC0190E080E0243069F059
:100AA00082E00895A09160022191AC01425C5D4F0B
:100AB000A40FB52FB11D2C930196861798F3809142
:100AC0006002680F6093600280E0089581E00895FD
:100AD0001092F00281E08093EF021092CA0261E06E
:100AE00082E00E94D10261E083E00E94D102E9EB42
:100AF000F0E080818E7F808380818D7F808388E499
:100B00008093B80085E48093BC000895CF93DF9371
:100B100091E090933D028823B9F0C091B800D09144
:100B2000BA008091BC008A7B8093BC0060E082E0C8
:100B30000E94D10260E083E00E94D1020E94680519
:100B4000D093BA00C093B800DF91CF9108958F92EF
:100B50009F92AF92BF92CF92DF92EF92FF920F934C
:100B60001F93CF93DF93D0911903D13208F0D7C0F0
:100B7000182FC09118030E94A0036B017C01809183
:100B8000F00281116BC082E08093F0021093EF02BB
:100B90008FEF8093EE021092ED02D093EC02A8EF5B
:100BA000B2E0ECECF2E080E0D81391C01092CB02FE
:100BB0008091CB02CC0FC82BC093CB028091CA028C
:100BC000813009F088C01092CA020E94A0036B0114
:100BD0007C018091CB028093BB008091F2029091C6
:100BE000F302A091F402B091F502892B8A2B8B2B92
:100BF000A1F00E94A0030091F2021091F302209153
:100C0000F4023091F5026C197D098E099F090617CF
:100C100017072807390708F442C08091BC0083FDFC
:100C2000D8CF85EC8093BC000E94A0036B017C01AF
:100C30008091F002823009F450C08091EE028F3F23
:100C400009F46FC08091EE02803209F46CC080918B
:100C5000EE02803309F469C084E026C08091F2027C
:100C60009091F302A091F402B091F502892B8A2BA6
:100C70008B2B09F484CF0E94A0038090F202909005
:100C8000F302A090F402B090F5026C197D098E0970
:100C90009F0986169706A806B90608F070CF8091BE
:100CA000F1020E94860585E01092F7021092190366
:100CB0001092F602DF91CF911F910F91FF90EF906C
:100CC000DF90CF90BF90AF909F908F9008959D91AF
:100CD00091938F5F69CF85EEA5CF8091F2029091BD
:100CE000F302A091F402B091F502892B8A2B8B2B91
:100CF00009F49ECF0E94A0030091F2021091F3022A
:100D00002091F4023091F5026C197D098E099F093A
:100D1000061717072807390708F08ACFC0CF81E0E8
:100D2000C3CF80E0C1CF82E0BFCF83E0BDCF0895C5
:100D300008950895E0913C0280913B02E81730F459
:100D4000F0E0E55EFD4F808190E008958FEF9FEF2A
:100D5000089590913C0280913B022FEF3FEF98174E
:100D600048F4E92FF0E0E55EFD4F208130E09F5F21
:100D700090933C02C901089580913B0290913C02FE
:100D8000891B990B0895CF92DF92EF92FF920F93F8
:100D90001F93CF93DF937C01CB018A012091F60250
:100DA000222389F0EB016B01C40ED51ECC15DD05A5
:100DB00069F06991D701ED91FC910190F081E02DEE
:100DC000C7010995F3CF642F0E944105C801DF9147
:100DD000CF911F910F91FF90EF90DF90CF900895EA
:100DE000CF93DF931F92CDB7DEB769832091F602D0
:100DF0002223F9F020911903203258F021E030E04D
:100E0000FC013383228390E080E00F90DF91CF914B
:100E100008958091F702E82FF0E0E850FD4F9981A6
:100E200090838F5F8093F7028093190381E090E0B5
:100E3000ECCF61E0CE0101960E944105F7CF90E032
:100E400080E00895DC01FB0112962C9112978481B9
:100E500095812817190641F491818081813A31F4F6
:100E60009D7F81E0913009F080E008958132E1F7C3
:100E70009B3029F482811F968C9381E008959A30EB
:100E800099F7828150968C93F8CFAF92BF92CF9210
:100E9000DF92EF92FF920F931F93CF93DF931F92F6
:100EA000CDB7DEB77C0169836A01590141E050E0AA
:100EB000BE016F5F7F4FFC0183810E94F7038C01AD
:100EC00097FD0BC0F7018381A501B60180640E94E4
:100ED000F703080F191F97FD8C01C8010F90DF91D0
:100EE000CF911F910F91FF90EF90DF90CF90BF9027
:100EF000AF900895FC01A385B485109771F47487B1
:100F0000638785859685DB0114962D913C91820F30
:100F1000931F968785870895DC018D919C91119789
:100F20000097D1F76D937C93ECCFDC01FB0188E453
:100F3000808389E4818384E482831D969C911D973C
:100F40009F709F5B93831D968D919C9124E0969555
:100F500087952A95E1F78F708F5B848385E00895EC
:100F6000EF92FF920F931F93CF93DF93FB012081AA
:100F7000213871F52381223259F5DC0112964C910A
:100F8000248135814217130619F5EC010B851C8568
:100F9000F12CE12C0115110589F0F80144815581EE
:100FA0006281738180E80E94C6018F3F980749F0F3
:100FB000E80EF91ED8010D911C91ECCF81E08F87CE
:100FC000C701DF91CF911F910F91FF90EF9008958E
:100FD00090E080E0F6CFCF93DF93CDB7DEB769978F
:100FE0000FB6F894DEBF0FBECDBFFC01DB018C91C4
:100FF0008F5F8C939E012D5F3F4F8DE0D9011D9235
:101000008A95E9F729E0298384E08A8391E09D832A
:1010100083E08E832A8721E22B879C879D879F8789
:1010200022E2288B27E02B8B25E02C8B8E8B20E473
:1010300030E0388F2F8B998F82818B8395858685C1
:10104000998B8A8B838180688D8B49E150E0BE014A
:101050006F5F7F4F80E00E94C60169960FB6F894DB
:10106000DEBF0FBECDBFDF91CF910895CF93DF9349
:1010700080911302811167C081E080930602809302
:1010800007022CE032E0309309022093080210920C
:101090000B0210920A0222E931E0309303022093FE
:1010A000020210920E0210920D0210921002109283
:1010B0000F02809311028093120281EC80930C0244
:1010C0000E940A02FC01818190910602482F490F7B
:1010D0005527551F483051059CF5A281B3811097C3
:1010E00009F522E032E03383228320812093040239
:1010F0008093050280910702820F8083209108026D
:10110000A22FB09109028A2F821B8917C8F481810E
:101110003D91C82FD0E0C35FDE4F38838F5F81835E
:10112000F2CFD90118962D913C91199721153105CF
:10113000C1F722E032E019963C932E931897D5CF51
:1011400081E08093130282E092E0DF91CF910895D5
:101150000E94360825E030E041E454E061E00C9460
:101160004507FC01408372836183942F9095DB01D6
:1011700011968C911197892311968C93A181B2813C
:1011800012968C911297482B12964C9323830895B4
:10119000CF93C42F91E09093F6028093180310929E
:1011A000F702109219038EE693E00E94F0066C2F6E
:1011B0008EE693E00E94F00681E00E94A7056CE3B2
:1011C00070E080E090E0CF910C94C5038F929F92E5
:1011D000AF92BF92CF92DF92EF92FF9282E10E9494
:1011E0007E03BC01990F880B990B0E94FA2E23E015
:1011F00030E040EA5BE30E94592F20E030E040E01D
:101200005FE30E94903020E030E048EC52E40E941E
:10121000592F6B017C0180900B01912CB12CA12CDA
:101220000E94E6319B01AC01281939094A095B0982
:10123000ADE9BFEF0E945A3020910C0130E050E040
:1012400040E0281939094A095B090E942D302D39DF
:101250008FEF3807480758079CF01216130614063C
:10126000150684F02C5920938C03C701B601FF901A
:10127000EF90DF90CF90BF90AF909F908F900895A8
:1012800021E0F1CF24E6EFCF9091B302981710F44C
:101290008093B30208951F93CF93DF9341E060E3FF
:1012A00088E50E94C80848E060E388E50E94C80815
:1012B000D0E0C0E017E080914301FE01189FE00DEF
:1012C000F11D1124EA5AFE4F4081442339F0FE01FA
:1012D000E15BFE4F608188E50E94C8082196C73017
:1012E000D10549F743E363E388E50E94C80848E075
:1012F00060E388E5DF91CF911F910C94C8088F922D
:101300009F92AF92BF92CF92DF92EF92FF921F9384
:10131000CF93DF93FC012089222309F472C0F42EBD
:10132000E62EEC01662309F444C0442309F441C0CD
:101330000E94A7046C837D838E839F83188189819B
:101340006E2D882341F16B8970E090E080E00E946F
:10135000FA2E20E030E048EC52E40E9474314B0158
:101360005C01EF9CB0011124072E000C880B990B37
:101370000E94FA2E9B01AC01C501B4010E94592FB5
:101380000E94E6316B01EB0161E0812F0E94420374
:10139000209789F460E0812FDF91CF911F91FF901A
:1013A000EF90DF90CF90BF90AF909F908F900C9474
:1013B000D1021B82C3CFCF3FD10511F461E0EBCF47
:1013C000E12FF0E0E25AFE4FE491E150EF3008F0F7
:1013D00087C0F0E0E251F64F0C940F33FD090D0A7F
:1013E000120A1C0A260A700A700A700A300A3A0A9F
:1013F000440A4E0A5B0A700A630A84B5806884BD99
:10140000C7BCDF91CF911F91FF90EF90DF90CF90FD
:10141000BF90AF909F908F90089584B5806284BDF7
:10142000C8BCEFCF80918000806880938000D0920C
:101430008900C0928800E5CF80918000806280930F
:101440008000D0928B00C0928A00DBCF8091800018
:10145000886080938000D0928D00C0928C00D1CFA4
:1014600080919000806880939000D0929900C09203
:101470009800C7CF80919000806280939000D092B6
:101480009B00C0929A00BDCF8091900088608093AD
:101490009000D0929D00C0929C00B3CF8091C0007C
:1014A00080688093C0008091C0008F7B8093C000D3
:1014B000C092CF00A6CF8091C00080628093C00010
:1014C000C092D0009ECF8091C20088608093C200FD
:1014D0008091C2008B7F8093C200C092D20091CFD6
:1014E000C038D1050CF06ACF55CF8F929F92AF9242
:1014F000BF92CF92DF92EF92FF921F93CF93DF9331
:10150000EC018A81680F6A83842F90E09F878E8721
:101510008889882309F44EC08B8181114BC0142F18
:101520000E94A704CC80DD80EE80FF806C197D09CD
:101530008E099F090E94F82E6B017C016C857D85C8
:1015400090E080E00E94F82E4B015C016A8970E017
:1015500090E080E00E94FA2E20E030E048EC52E477
:101560000E9474319B01AC01C501B4010E94743129
:101570004B015C016A857B8590E080E00E94F82E3B
:101580009B01AC01C501B4010E9491309B01AC01EB
:10159000C701B6010E94823287FD0CC0412F61E075
:1015A000CE010E947F0981E08B838A81882311F01C
:1015B00081508A83DF91CF911F91FF90EF90DF9050
:1015C000CF90BF90AF909F908F900895909101021F
:1015D000992391F0282F30E02E5F3F4F54E1529F26
:1015E000C001539F900D112486589C4FFC01218906
:1015F000211102C00C94750A08951F93CF93DF93B5
:10160000C82F142FD22F462F682F80E00E94E60AA1
:10161000412F6C2F81E00E94E60A4D2F6C2F82E053
:10162000DF91CF911F910C94E60A2FEF4FEF6FEFF0
:101630000C94FD0A623049F0633059F0613061F476
:1016400020E040E06FEF0C94FD0A20E04FEF60E0F7
:10165000FACF2FEF40E0FBCF862F0C94150B0F93A2
:101660001F93CF93DF93D82FAEEDB3E085E194E0E5
:101670001396EC91139724E0E202F0011124EB5E43
:10168000FB4F138215968A179B0791F72D2F30E099
:101690008901045C1E4FDB3080F4F80180818F5F8C
:1016A00026563E4FF9019081981708F480E0F80122
:1016B0008083D73011F40E944B09F801C081CF5FBD
:1016C0004FEF6C2F8EE893E00E94750A6D2F8C2FE0
:1016D000DF91CF911F910F910C941A0B0F931F93D1
:1016E000CF93DF9380910002882311F180913A011A
:1016F000882309F449C080913D01882309F444C03E
:101700004FEF60E080E00E94E60AE1E0F0E0EC5C90
:10171000FE4F808194E1989FF0011124E658FC4F20
:101720002189211105C04FEF60E0CF010E94750AA9
:10173000CAE7D3E088898823E9F08B81882361F1A7
:101740000E94A7040C811D812E813F81AB01BC0149
:10175000401B510B620B730B8A859B85B0E0A0E0A8
:10176000481759076A077B0728F04FEF60E0CE0162
:101770000E947F09649683E0CE3DD807D9F6DF91B9
:10178000CF911F910F9108952FEF4FEF6FEF80E0F2
:101790000E94FD0AE0E0BACF8A81882359F34E8582
:1017A00060E0CE010E94750AE5CFCF92EF920F93D1
:1017B0001F93CF93DF93EC016883488B3B872A8785
:1017C0001D870C87E982CB8A442379F0862F61E05C
:1017D0000E9442034FEF60E0CE01DF91CF911F9155
:1017E0000F91EF90CF900C947F09DF91CF911F91D3
:1017F0000F91EF90CF900895EF92FF921F93CF93A8
:10180000DF937C0191E050E0440F551F3BE09617B9
:1018100038F5292FE701C90FD11D97FDDA9512166A
:10182000ECF47A9119817303D0011124A40FB51F30
:10183000AA5ABB4F1303F0011124E40FF51FEA5A13
:10184000FB4F0D90BC91A02D0190F081E02DEA1787
:10185000FB0724F4188379832150E1CF9F5FD7CF12
:10186000DF91CF911F91FF90EF9008958F929F92FB
:10187000AF92BF92CF92DF92EF92FF920F931F939E
:10188000CF93DF93EC018090DC019090DD01A0907C
:10189000DE01B090DF0120E030E040EA51E4C50114
:1018A000B4010E9490300E94E6316B0120E030E0EC
:1018B00040EA51E4C501B4010E9491300E94E63132
:1018C000AB01CC16DD061CF4C617D707ACF184EBD0
:1018D00090E09C01241B350B2C173D072CF48C1930
:1018E0009D09C817D9075CF1C6018C549F4F8C170E
:1018F0009D0734F4CA018D549F4F8C179D0714F532
:1019000088E691E09C01241B350B2C173D07ECF475
:101910008C199D09C817D907C4F48BE391E0DF91B6
:10192000CF911F910F91FF90EF90DF90CF90BF90DC
:10193000AF909F908F9008958DE290E0F0CF87E870
:1019400090E0EDCF81EE90E0EACF8FEF9FEFE7CF11
:10195000CF92DF92EF92FF926B017C0120E030E0AA
:1019600044EB53E40E94823287FD09C020E030E05E
:1019700044EB53E4C701B6010E949030EDCF20E064
:1019800030E0A901C701B6010E94F32E87FF0BC00A
:1019900020E030E044EB53E4C701B6010E949130EF
:1019A0006B017C01ECCFC701B601FF90EF90DF9097
:1019B000CF90089584302CF493E0981B9C7F890F7E
:1019C00008958450F7CFFC0101900020E9F731978A
:1019D000AF01481B590BBC018EE193E00C949104BC
:1019E0008F929F92AF92BF920F931F93CF93DF93EB
:1019F000CDB7DEB7A1970FB6F894DEBF0FBECDBF4F
:101A000019A2423008F44AE08E010F5D1F4F842E68
:101A1000912CB12CA12CA50194010E945F30E62FDE
:101A2000B901CA01EA30F4F4E05DD801EE938D010A
:101A3000232B242B252B79F790E080E0109719F0C9
:101A4000CD010E94E30CA1960FB6F894DEBF0FBE45
:101A5000CDBFDF91CF911F910F91BF90AF909F901D
:101A60008F900895E95CE1CFCF92DF92EF92FF92E1
:101A7000CF93DF936B017C016DE28EE193E00E94D6
:101A80004F02EC0166277727CB016C197D098E097F
:101A90009F094AE00E94F00C8C0F9D1FDF91CF91AF
:101AA000FF90EF90DF90CF9008958F929F92AF922A
:101AB000BF92CF92DF92EF92FF920F931F93CF933B
:101AC000DF93D82F8B01C42F0E94A0036B017C01F0
:101AD0008091F002811166C081E08093F0028093D2
:101AE000EF029FEF9093EE021092ED029C0F909305
:101AF000EC028093CB028091CB02DD0FD82BD093E8
:101B0000CB028091CA02813009F097C01092CA02BC
:101B10000E94A0036B017C018091CB028093BB00EB
:101B20008091F2029091F302A091F402B091F5023B
:101B3000892B8A2B8B2BA1F00E94A0038090F202AC
:101B40009090F302A090F402B090F5026C197D0918
:101B50008E099F0986169706A806B90608F443C0A1
:101B60008091BC0083FDD8CF85EC8093BC000E949F
:101B7000A0036B017C018091F002813009F45FC009
:101B80008091ED028C1708F07CC08091ED02ECECA6
:101B9000F2E0ABE1B2E090E0981751F121912D9382
:101BA0009F5FFACF8091F2029091F302A091F4022C
:101BB000B091F502892B8A2B8B2B09F489CF0E94D7
:101BC000A0038090F2029090F302A090F402B090F3
:101BD000F5026C197D098E099F0986169706A806DD
:101BE000B90608F075CF8091F1020E94860580E069
:101BF00010923C0280933B02D0E08C171D0609F046
:101C000042C078018EE693E00E94A906F701819315
:101C10007F01CF01801B910B8C179D079CF381E006
:101C2000DF91CF911F910F91FF90EF90DF90CF90B8
:101C3000BF90AF909F908F90089585EE96CF809142
:101C4000F2029091F302A091F402B091F502892B77
:101C50008A2B8B2B09F48FCF0E94A0038090F20275
:101C60009090F302A090F402B090F5026C197D09F7
:101C70008E099F0986169706A806B90608F07BCF3D
:101C8000B2CF8C2F84CF80E0CBCF2F923F924F9258
:101C90005F926F927F928F929F92AF92BF92CF92FC
:101CA000DF92EF92FF920F931F93CF93DF93CDB705
:101CB000DEB72D970FB6F894DEBF0FBECDBF10E094
:101CC00025E0222E3324339480910A01181708F05E
:101CD00010C1C12ED12C2C9CF0012D9CF00D112493
:101CE000E252FC4FA181B2810C9180810823123015
:101CF00008F0D8C096012F543D4F4901F901F081F9
:101D0000FD877601EE0CFF1CEE0CFF1CF701E8507E
:101D1000FE4F4080518062807380F601EE0FFF1FFE
:101D2000EA5CFE4FA080B180A114B10479F52C9C2F
:101D3000F0012D9CF00D1124E252FC4F84818013A0
:101D400032C0A114B10469F101112BC00E94A70493
:101D5000AB01BC014419550966097709C501B0E01A
:101D6000A0E084179507A607B707D8F42D852111A1
:101D700018C01092C202F4013082113091F48091A7
:101D80004401882371F0109300020BC00E94A70445
:101D900064197509860997096D33710581059105E7
:101DA00030F61F5F91CF0483011165C00E94A70424
:101DB000F701E850FE4F6083718382839383113073
:101DC000E9F58091B302811139C0909141019923C5
:101DD00029F08091F7018F5F8093F70180913D0199
:101DE000882321F020913A01211106C09923D9F0CE
:101DF0009091F7019630B8F0813009F073C080936C
:101E0000B40210924304109242042FEF30E030935A
:101E10004504209344041092B4028093C2021092AD
:101E2000F7013092340180914201811130923401E6
:101E300080914401823011F43092000280913D0182
:101E4000811107C080913A01882319F0113009F4FB
:101E5000A8CF2C9CF0012D9CF00D1124E252FC4FD8
:101E6000E38154E0E502F0011124EB5EFB4F838136
:101E70008F5F838396CF03810E94A704F701E85008
:101E8000FE4F6083718382839383113041F41092FB
:101E9000C202109200021093E60310923401F40182
:101EA000108208C08481801709F47BCF048300234B
:101EB00069F0038124E0029FF0011124EB5EFB4FE7
:101EC0008381882309F46DCF8150D3CF143009F07A
:101ED000B5CF80913E01882349F08091080180931D
:101EE000F503ACCF32E03093E60399CF809109013E
:101EF000F6CF46E0BE01695F7F4F82E50E94550D37
:101F0000882309F45CC08C85982F909591709983F3
:101F10008695817091E089278A838F818F57990BED
:101F200028852058330B41E02F3131050CF440E077
:101F30004B8341E08F3191050CF440E04C8341E04C
:101F4000223E3F4F0CF040E04D8321E0823E9F4F08
:101F50000CF020E02E83AE014F5F5F4FA1EFB1E0A8
:101F600080E032E0823008F035E0380FFA0121914C
:101F7000AF019D91291771F094E0399FF001112470
:101F8000EB5EFB4F9381222399F19F5F9383FD01C9
:101F9000319720838F5F863021F781E08093F602AE
:101FA00082E5809318031092F7021092190360E003
:101FB0008EE693E00E94F00681E00E94A7052D9630
:101FC0000FB6F894DEBF0FBECDBFDF91CF911F914A
:101FD0000F91FF90EF90DF90CF90BF90AF909F90C8
:101FE0008F907F906F905F904F903F902F900895CB
:101FF0009150CCCFBC01990F880B990B97FF07C06C
:102000000E94340D6CE28EE193E00C944F024AE0A2
:102010000E94F00CF7CFCF92DF92EF92FF92FB017C
:10202000E21BF30BDC01A41BB50B9D010E941533D1
:102030006B017C019F01DF010E9415336C0D7D1D3A
:102040008E1D9F1D0E94FA2E0E949D320E94E63135
:10205000CB01FF90EF90DF90CF90089585ED8093B6
:10206000BC008091F2029091F302A091F402B09131
:10207000F5020796A11DB11D23E0B695A79597958A
:1020800087952A95D1F72091BC0024FD03C01092BA
:10209000F00208954091F2025091F3026091F4022F
:1020A0007091F502452B462B472B69F30097A1054C
:1020B000B10541F02AE22A95F1F700C00197A10984
:1020C000B109E1CF8091F1020C948605FF920F9344
:1020D0001F93CF93DF93EC018B01FB01F0800E94F3
:1020E0001730F81621F06F2DCE010E941F30F80135
:1020F000F1802196CE010E941730F81621F06F2D45
:10210000CE010E941F30C801DF91CF911F910F9126
:10211000FF900895EF92FF920F931F93CF93DF9359
:1021200000D0CDB7DEB77B01082F10E0000F111FE4
:10213000C8010E9417308983C80101960E94173098
:102140008A8389819A818F3F980709F07C01C701B2
:102150000F900F90DF91CF911F910F91FF90EF9013
:102160000895FF920F931F93CF93DF93062F182F9D
:10217000110F180FC82FD0E0642F70E085E3810F96
:102180000E948A10F82E602F70E083E3810F0E9476
:102190008A10FE01EE0FFF1FEE0FFF1FEB5EFB4FDD
:1021A000F0828183DF91CF911F910F91FF9008956D
:1021B000CF92DF92EF92FF920F931F93CF93DF9313
:1021C0008B01E901BA01681B790B072E000C880B03
:1021D000990B0E94FA2E6B017C01BE01601B710BF2
:1021E000072E000C880B990B0E94FA2EA70196016E
:1021F000DF91CF911F910F91FF90EF90DF90CF90E3
:102200000C9410312F923F924F925F926F927F9277
:102210008F929F92AF92BF92CF92DF92EF92FF92F6
:102220000F931F93CF93DF9300D000D000D01F9265
:10223000CDB7DEB7E82F082E000CFF0BDF01A95B3E
:10224000BE4F6D019C919F3F09F0DDC0E62E062E2A
:10225000000CFF08EBE0EE9DD001EF9DB00D1124C6
:10226000AA5ABB4F19969C919F3F09F0CCC0890197
:102270006983382EA42E042E000CBB086E02D001F8
:102280001124AA5ABB4F4E02F0011124EA5AFB4F07
:10229000228133814081518112966D917C911397F7
:1022A0008D919C910E94D81020EE3EE245E652E4CA
:1022B0000E94592F2B013C0120E030E0A9010E942F
:1022C000F32E87FF0AC020E030E044EB53E4C30163
:1022D000B2010E9491302B013C0120911A033091F0
:1022E0001B0340911C0350911D03C301B2010E94C6
:1022F00090300E94A80C0E94E631CB010E94360C5F
:10230000BC01990F880B990B0E94FA2E2B013C01FE
:10231000F32D2AE5F202F0011124E957FF4FFF8364
:10232000EE8322242394230C34E0330D3B832BE0F3
:102330002A9DC0012B9D900D1124DC01A15ABB4F99
:10234000BD83AC83EE81FF81BF01FF0F880B990B2A
:102350000E94FA2E0E94A80C4B015C01822D0E9463
:10236000DA0C8A83C501B4010E94E631072E000C05
:10237000880B990B0E94FA2E9B01AC01C301B2019C
:102380000E94F32E811136C0AC81BD818C918F3FAC
:1023900039F0082E000C990BBA81B817190651F5BF
:1023A0008BE08E9DF0018F9DF00D1124EA5AFB4FBA
:1023B00031862981F6012083D8018C918F5F8C931F
:1023C00081E027960FB6F894DEBF0FBECDBFDF9138
:1023D000CF911F910F91FF90EF90DF90CF90BF9022
:1023E000AF909F908F907F906F905F904F903F90B5
:1023F0002F900895EE81FF81BD96FF83EE83239495
:10240000FB812F129FCF80E0DCCF8F929F92AF9203
:10241000BF92CF92DF92EF92FF920F931F93CF93D1
:10242000DF9300D0CDB7DEB762E089E10E944203BE
:1024300062E08BE10E94420362E08CE10E94420371
:1024400068EC70E080E090E00E94C50389E10E94A2
:102450007E036C018BE10E947E037C018CE10E9473
:102460007E0321E0C21AD108E3E8CE16E3E0DE06DF
:1024700078F4F1E0EF1AF10823E8E21623E0F2061F
:1024800038F401978338934018F481E08093010277
:102490008091010290E09A838983BE016F5F7F4F34
:1024A00080E190E00E94661060E082E10E944203B9
:1024B00026EBE22E22E0F22E10E070E060E0812FA9
:1024C0000E948A10F701819391937F011F5F16305C
:1024D000A1F760E170E086E00E948A106C0169E07B
:1024E00070E087E00E948A107C01B601DD0C880B49
:1024F000990B0E94FA2E4B015C01B701FF0C880B6F
:10250000990B0E94FA2E9B01AC01C501B4010E94F7
:1025100074316B017C01C0922801D0922901E092B4
:102520002A01F0922B01609138017091390189E004
:102530000E948A109093390180933801A701960177
:1025400060E070E080E89FE30E94103120EE3EE200
:1025500045E652E40E94592F6B017C0120E030E0F7
:10256000A9010E94F32E87FF0AC020E030E044EB6F
:1025700053E4C701B6010E9491306B017C01C09207
:10258000E401D092E501E092E601F092E701C09209
:10259000DC01D092DD01E092DE01F092DF01A701C3
:1025A000960160E070E084EB93E40E9490306093C9
:1025B000E8017093E9018093EA019093EB01A70190
:1025C000960160E070E084E393E40E9490306093B1
:1025D000E0017093E1018093E2019093E30120E038
:1025E00030E044E353E4C701B6010E9491306093A8
:1025F000EC017093ED018093EE019093EF0161E4A3
:1026000070E082E20E948A108C0163E270E081E255
:102610000E948A105C0161E070E080E20E948A10F2
:1026200041E0892B09F440E094E6C92EE12C9501A4
:1026300067E08AE793E00E94D50B64E670E086E2EB
:102640000E948A10C82E62E370E085E20E948A1020
:102650008C0166E970E084E20E948A105C0161E00E
:1026600070E083E20E948A1041E0892B09F440E087
:10267000EE24E394950165E08EE893E00E94D50B8B
:102680008CE3E82E81E0F82E1CE0F70161917F01D8
:1026900070E0812F0E948A10F701319780831F5FBD
:1026A000173199F760910B0170E08EE10E948A105A
:1026B00080930B0160910C0170E08FE10E948A1001
:1026C00080930C0141E060E080E00E94B11040E0A6
:1026D00061E081E00E94B11040E062E082E00E948F
:1026E000B11040E064E083E00E94B11041E061EE8F
:1026F00084E00E94B11041E062E285E00E94B110E6
:1027000041E06EE186E00E94B11041E062E587E0C1
:102710000E94B11041E06FE488E00E94B11041E0F6
:1027200061E589E00E94B11041E060E58AE00E9425
:10273000B11070E060E085E50E948A10282F40E427
:102740006FE270E08EED93E00E94B10861E070E00E
:1027500086E50E948A10282F40E26FE270E083EE47
:1027600093E00E94B10862E070E087E50E948A1061
:10277000282F40E16FE270E088EE93E00E94B108FC
:1027800063E070E088E50E948A10282F40E169E24A
:1027900070E08DEE93E00E94B10865E070E08AE59C
:1027A0000E948A10282F40E163E270E087EF93E0F7
:1027B0000E94B10880910102882309F4DBC087E000
:1027C00080930A0164E070E089E50E948A10282F56
:1027D00042E063E270E082EF93E00E94B10866E0BD
:1027E00070E08BE50E948A10282F48E063E270E0D9
:1027F0008CEF93E00E94B10864E670E08AE20E94E8
:102800008A10C82E6CE370E089E20E948A108C0165
:1028100062E370E088E20E948A105C0161E070E08F
:1028200087E20E948A1041E0892B09F440E0EE24FF
:10283000E394950166E082EA93E00E94D50B64E69A
:1028400070E08EE20E948A10C82E6CE370E08DE288
:102850000E948A108C0162E370E08CE20E948A1070
:102860005C0161E070E08BE20E948A1041E0892BFC
:1028700009F440E0EE24E394950169E086EB93E0EF
:102880000E94D50B64E670E082E30E948A10C82E95
:102890006CE370E081E30E948A108C0162E370E0D7
:1028A00080E30E948A105C0161E070E08FE20E9488
:1028B0008A1041E0892B09F440E0EE24E39495016D
:1028C0006AE08AEC93E00E94D50B8091EB03809341
:1028D00008018091F5038093090110923C02109247
:1028E0003B021092F702109219030E94680587E9D3
:1028F00096E090935F0280935E0288E996E0909361
:102900006302809362020E944B0945E560EF82E515
:102910000E94C80840E06BEF82E50E94C80880E88A
:1029200090E09093430480934204909345048093F5
:102930004404909347048093460490934904809301
:10294000480490934B0480934A0490934D048093E1
:102950004C040E94A8080F900F90DF91CF911F9117
:102960000F91FF90EF90DF90CF90BF90AF909F902E
:102970008F90089564E070E089E50E948A10282F06
:1029800040E869E270E082EF93E00E94B10866E0FF
:1029900070E08BE50E948A10282F40E263E270E02D
:1029A0008CEF93E00E94B10867E070E08CE50E9434
:1029B0008A10282F42E063E270E081E094E00E94F8
:1029C000B10868E070E08DE50E948A10282F40E48D
:1029D00063E270E086E094E00E94B10869E070E094
:1029E0008EE50E948A10282F48E063E270E08BE0B9
:1029F00094E00E94B1086AE070E08FE50E948A10BE
:102A0000282F44E063E270E080E194E00E94B10886
:102A10005CCFCF92DF92EF92FF92CF93DF936B0167
:102A20007C01EA0120E030E044E353E40E9482327A
:102A3000181654F420E030E044EB53E4C701B6012B
:102A40000E9490306B017C0125E33AEF4EE85CE395
:102A5000C701B6010E94592F0E948F326B017C0181
:102A6000BE01DD0F880B990B0E94FA2EA70196017B
:102A70000E94592FDF91CF91FF90EF90DF90CF9080
:102A80000895CF92DF92EF92FF92CF93DF936B0185
:102A90007C01EA0120E030E044E353E40E9482320A
:102AA000181654F420E030E044EB53E4C701B601BB
:102AB0000E9490306B017C0125E33AEF4EE85CE325
:102AC000C701B6010E94592F0E946F316B017C0132
:102AD000BE01DD0F880B990B0E94FA2EA70196010B
:102AE0000E94592FDF91CF91FF90EF90DF90CF9010
:102AF00008952F923F924F925F926F927F928F92A2
:102B00009F92AF92BF92CF92DF92EF92FF920F937C
:102B10001F93CF93DF93CDB7DEB7C256D1090FB65F
:102B2000F894DEBF0FBECDBF2DB73EB7A3963FAF23
:102B30002EAFA39781E08093F60288E58093180377
:102B40001092F7021092190366E38EE693E00E945A
:102B5000F00681E00E94A70540E1BE016F5E7F4F55
:102B600088E50E94550D882309F42FC680914B01FA
:102B700090914C01A0914D01B0914E0189A39AA36F
:102B8000ABA3BCA344E050E06FEF7FEF87E491E09C
:102B90000E942D331DA24091B6025091B70226EF3C
:102BA0002403B001259F700D11247FAB6EAB4091C3
:102BB000B8025091B9022403C001259F900D112441
:102BC0009FAF8EAF20911A0330911B0340911C03DD
:102BD00050911D032AAB3BAB4CAB5DAB50582AA7C1
:102BE0003BA74CA75DA7AE014F5E5F4F3A0166E57C
:102BF00074E07FA36EA38B01212C312CD30113969B
:102C00004C911397842F90E09C0154E0220F331FC6
:102C10005A95E1F72227337011966C91620F732F4A
:102C2000711DBAE0B69F9001B79F300D1124880F37
:102C3000991F880F991F88279370F3016281680F8D
:102C4000792F711DB69FC001B79F900D11244F7051
:102C5000263FF7E23F0729F4863F57E2950709F43C
:102C6000D7C56EA97FA9260F371FAEADBFAD8A0F9E
:102C70009B1FF80160817181D901A61BB70BBD01B3
:102C8000B7FF03C0719561957109653F71407CF490
:102C9000F80162817381DC01A61BB70BBD01B7FF90
:102CA00003C0719561957109653F714024F05FEF34
:102CB000F80151871286D80111963C932E931396F2
:102CC0009C938E931297263F374251F4863F97424A
:102CD00039F4EFEFD8011996EC9319971A961C92D4
:102CE000D80118964C9318974D905C90B20174518E
:102CF000072E000C880B990B0E94FA2E6EA77FA757
:102D000088AB99AB20E030E044E353EC6AA97BA99F
:102D10008CA99DA90E94F32E87FFA3C020E030E07C
:102D200044EB53E46AA57BA58CA59DA50E94903039
:102D3000F62FE72FDC0125E33AEF4EE85CE36F2F37
:102D40007E2FCD010E94592F4B015C010E946F31F3
:102D50006B017C01F8010280F381E02DF9AFE8AF4F
:102D6000BF017F50072E000C880B990B0E94FA2E92
:102D70006AAF7BAF8CAF9DAFC501B4010E948F32AB
:102D80004B015C01A70196016EA57FA588A999A9B1
:102D90000E94592F24966CAF7DAF8EAF9FAF2497C2
:102DA000A50194016AAD7BAD8CAD9DAD0E94592FFC
:102DB0009B01AC0124966CAD7DAD8EAD9FAD24978B
:102DC0000E94903020E030E040EA55E40E949130CB
:102DD0000E94E631D80115967C936E931497A50155
:102DE00094016EA57FA588A999A90E94592F4B012E
:102DF0005C012AAD3BAD4CAD5DADC701B6010E9493
:102E0000592F9B01AC01C501B4010E94913020E013
:102E100030E040E755E40E9491300E94E631F8012D
:102E200077836683B6E5EB2EB4E0FB2ED12C20E051
:102E3000D314E1F0211124C0D70112962D913C91B9
:102E400013974D915C9168AD79ADC2010E940B1052
:102E5000D394BBE0EB0EF11C21E0883E934044F399
:102E6000E6CFFAA5EBA5ACA5BDA565CF211108C09D
:102E7000E1E2F0E0EC0FFD1FE20DF11D3082239442
:102E80003394F3E06F0E711C055F1F4F24E0321284
:102E9000B5CE81E0211080E080933B019DA1E6E565
:102EA000F4E080E02FEFA185AF3F71F0328532155D
:102EB00020F432E0321508F4C6C49F5F0A2E000CDD
:102EC000BB0BA95BBE4F8C938F5F3B96843059F749
:102ED0009DA341E0421508F089C06DB77EB77BAB7A
:102EE0006AAB022D10E0580171E0A71AB1088DB746
:102EF0009EB7801B910B0FB6F8949EBF0FBE8DBF7F
:102F0000ADB7BEB711967D01EDB7FEB7E01BF10B73
:102F10000FB6F894FEBF0FBEEDBF2DB73EB72F5FC3
:102F20003F4F6901A801BE016F5D7F4FCD010E9437
:102F30002433A801BE016F5D7F4FC6010E94243378
:102F400042E0622DC7010E94FC0B43E0622DC601E6
:102F50000E94FC0B34E0231279C42DA2D7014C91BE
:102F60002BE04203F0011124EA5AFB4F82E08187F3
:102F70004093490113963C913203F0011124EA5A1F
:102F8000FB4F118630934701F6018381481719F0F2
:102F9000E3E0381301C0E2E0EC0DFD2DF11D80816E
:102FA0002BE08202F0011124EA5AFB4F91E0918755
:102FB00080934801D6019C9181E0491711F03913A3
:102FC00080E0C80ED11CF60180812BE08202F00166
:102FD0001124EA5AFB4F93E0918780934A014AA952
:102FE0005BA90FB6F8945EBF0FBE4DBF1DA182E86E
:102FF00094E0AEA1BFA11A962C911A97211738F42C
:1030000019962C9119972F3F11F01A961C93EEA147
:10301000FFA13B96FFA3EEA38E179F0751F7111157
:1030200003C021100C94CC22F0914901FEABFF3F6C
:1030300009F422C5E0914701EF3F09F41DC58BE07B
:10304000F802D0011124AA5ABB4FE802F001112462
:10305000EA5AFB4F228133814081518112966D9152
:103060007C9113978D919C910E94D81020EE3EE2A6
:1030700045E652E40E94592F6EA37FA388A799A723
:1030800020E030E0A9010E94F32E87FF0EC020E06F
:1030900030E044EB53E46EA17FA188A599A50E947E
:1030A00091306EA37FA388A799A720914A012EAFE4
:1030B0002F3F09F4E6C4A0914801AF3F09F4E1C4F1
:1030C0008BE02802F0011124EA5AFB4FA802D0013C
:1030D0001124AA5ABB4F12962D913C9113974D91F2
:1030E0005C9162817381808191810E94D81020EE71
:1030F0003EE245E652E40E94592F6AAF7BAF8CAFA7
:103100009DAF20E030E0A9010E94F32E87FF0EC0A2
:1031100020E030E044EB53E46AAD7BAD8CAD9DAD77
:103120000E9491306AAF7BAF8CAF9DAF30911A0394
:103130003AA740911B034EA750911C035AAB6091D4
:103140001D0368AF113009F0C0C4E7E4F1E090E07E
:1031500080E0382E01910F3F09F4B1C47BE00702F3
:10316000800111240A5A1B4FD801ED90FC90880F62
:10317000991FFC01E45DFE4FC080D180A6016AA5C5
:103180007EA58AA998AD0E9409154090040150902F
:1031900005016090060170900701A30192010E9451
:1031A000592F4B015C01A6016AA57EA58AA998AD9D
:1031B0000E9441159B01AC01C301B2010E94592F2D
:1031C0002B013C01232D2D7FB701FF0C880B990BA0
:1031D00021115CC40E94FA2EA30192010E94913039
:1031E0000E94E6317093830460938204F801628147
:1031F0007381072E000C880B990B0E94FA2EA501F3
:1032000094010E9491300E94E6317093850460938E
:1032100084042091000130910101409102015091FC
:1032200003012AAF3BAF4CAF5DAF8AA59EA5AAA90B
:10323000B8AD8EA39FA3A8A7B9A76EA17FA188A5AB
:1032400099A50E94E6318B01653B710514F0085683
:1032500011406AA57EA58AA998AD0E94E6319B011E
:10326000653B710514F028563140021B130B0D5EAF
:103270001F4F0732110560F020E030E0A9016AA578
:103280007EA58AA998AD0E94F32E81110C94CC22C0
:1032900020E030E044EB52E46AA57EA58AA998AD0F
:1032A0000E948232181674F420E030E047E853E4BC
:1032B0006AA57EA58AA998AD0E94F32E87FF02C059
:1032C0000C94CC222EA13FA148A559A520931A0306
:1032D00030931B0340931C0350931D034AAD5BAD19
:1032E0006CAD7DAD409300015093010160930201EC
:1032F00070930301609182047091830479AF68AF89
:1033000080918404909185049BAF8AAF072E000CB6
:10331000880B990B0E94FA2E20E030E040EA55E439
:103320000E9490309B01AC0150582AA73BA74CA7A4
:103330005DA7CEA0DFA0E8A4F9A4F7FAF094F7F80F
:10334000F09420E030E044E353EC6EA17FA188A527
:1033500099A50E94F32E87FF0AC020E030E044EBDD
:1033600053E4C701B6010E9490306B017C0125E354
:103370003AEF4EE85CE3C701B6010E94592F2B01DA
:103380003C010E946F314B015C014AAD5BADBA015B
:10339000550F880B990B0E94FA2E20E030E040E791
:1033A00055E40E9490306B017C01C301B2010E9480
:1033B0008F326EA37FA388A799A7A50194016AA560
:1033C0007BA58CA59DA50E94592F2B013C012EA108
:1033D0003FA148A559A5C701B6010E94592F9B01DD
:1033E000AC01C301B2010E94913020E030E040EA1C
:1033F00055E40E949130562E472E382E292EC701B3
:10340000B6019058A50194010E94592F6B017C01CF
:103410002EA13FA148A559A56AA57BA58CA59DA570
:103420000E94592F9B01AC01C701B6010E94913047
:1034300020E030E040E755E40E9491306EA37AA787
:103440003C01609104017091050180910601909109
:10345000070124966CAF7DAF8EAF9FAF24979CE29F
:10346000E92E91E0F92ECE0101966C01A7E4B1E0BE
:10347000BFAFAEAFEAEBF2E0FFABEEABD7010D9121
:103480001D917D0117FF02C00C945722B1E0BAAB29
:10349000AEADBFADED91BFAFAEAFEEA7AEA9BFA9C8
:1034A0006D917D91BFABAEAB072E000C880B990BD5
:1034B0000E94FA2E20E030E04AE754E40E94743182
:1034C0009B01AC0160E070E080E89FE30E949030D7
:1034D0004B015C01BEA5BF3F09F4EDC72BE0B20272
:1034E000F0011124EA5AFB4F628173812AAD3BAD92
:1034F00048AD59AD808191810E940B102AA9AC0181
:103500002403B001259F700D1124072E000C880B99
:10351000990B0E94FA2EA50194010E94592FD60101
:103520006D937D938D939C931397F4E0CF0ED11CF4
:1035300024E331E02E153F0509F0A0CF80913F0133
:10354000882309F448C06091460170E090E080E073
:103550000E94F82E20E030E048EC52E40E947431E2
:103560004B015C01C0902801D0902901E0902A0114
:10357000F0902B01AC019B01C701B6010E94F32E14
:10358000882349F1A5019401C701B6010E94823246
:1035900018160CF0A8C7A7019601C501B4010E9436
:1035A00074316B017C01AC019B0169857A858B8547
:1035B0009C850E94592F69877A878B879C87A701F2
:1035C000960169817A818B819C810E94592F698340
:1035D0007A838B839C8320E030E040EA55E4652DBC
:1035E000742D832D922D0E94F32E87FFA5C7298568
:1035F0003A854B855C85652D742D832D922D0E9417
:10360000903024E02093F0015AAE4EAAC32CD22C65
:10361000562E472E382E292E4FEF5FE15BAB4AAB7B
:103620006FEF7FE37FA76EA71091F00120E030E0FD
:1036300040E755E46EA17AA5C3010E94F32E87FFEF
:1036400092C72D853E854F8558896EA17AA5C30105
:103650000E94903018601093F001EEA0FAA46EAEB4
:1036600021967FAE21976EA37AA73C01AFEFBFE111
:10367000B9AFA8AF10E000E0652D742D832D922D19
:103680000E94E6314B0160E074E168197909072E68
:10369000000C880B990B0E94FA2E1B012C016AADBD
:1036A0007EA9C6010E94E63168197909072E000C2F
:1036B000880B990B0E94FA2E9B01AC01C201B1014B
:1036C0000E9474314B015C016AA97BA92EA53FA51C
:1036D000621B730B072E000C880B990B0E94FA2EAD
:1036E0009B01AC01C501B4010E94592F4B015C0143
:1036F0004EA55FA5BA01550F880B990B0E94FA2EB3
:103700009B01AC01C501B4010E94913020E030E082
:1037100040E05FE30E9491300E94E6317093C60260
:103720006093C5026EA17AA5C3010E94E6314B01E8
:1037300060E07FE068197909072E000C880B990B6F
:103740000E94FA2E2B013C01B7018EAD21969FAD50
:1037500021970E94E63168197909072E000C880B21
:10376000990B0E94FA2E9B01AC01C301B2010E9489
:1037700074316B017C0168AD79AD601B710B072E54
:10378000000C880B990B0E94FA2E9B01AC01C7011B
:10379000B6010E94592F6B017C01B801110F880BF3
:1037A000990B0E94FA2E9B01AC01C701B6010E9441
:1037B000913020E030E040E05FE30E9491300E94D1
:1037C000E6317093C4026093C302A3968EAD9FADA1
:1037D000A3970FB6F8949EBF0FBE8DBFCE59DF4F93
:1037E0000FB6F894DEBF0FBECDBFDF91CF911F9112
:1037F0000F91FF90EF90DF90CF90BF90AF909F9090
:103800008F907F906F905F904F903F902F90089592
:10381000D80111969C938E9313969C938E93129736
:10382000EFEF1996EC9319971A961C921A9718961F
:103830001C92189715969C938E93149717969C93A9
:103840008E9316971DCB218712863ECB8DA132E039
:10385000231235C08130B9F502501109D601A00FED
:10386000B11FF601EA0DFB1D9E012B5D3F4F4C91F0
:10387000608181E00E9402119E012B5D3F4FD601C5
:1038800011964C9111976C9183E00E9402119E0158
:103890002B5D3F4FF7014181608182E00E94021160
:1038A0000E0D1F1DEA0CFB1C9E012B5D3F4FD80126
:1038B0004C91F701608180E00E94021190CB82154B
:1038C00008F08DCBC9CF81118ACBD70111960C910D
:1038D0001197E02F002E000CFF0BFBA7EAA71C910D
:1038E000212F012E000C330B3FA72EA7EBE01E0269
:1038F000D0011124AA5ABB4FED90FC90119712965B
:10390000CD90DC900E02F0011124EA5AFB4FA0800A
:10391000B180828093809401A501B601C7010E9405
:10392000D81020EE3EE245E652E40E94592F2B01CA
:103930003C0120E030E0A9010E94F32E87FF0AC07D
:1039400020E030E044EB53E4C301B2010E94913027
:103950002B013C0120911A0330911B0340911C0361
:1039600050911D03C301B2010E9490300E94A80C27
:103970000E94E631CB010E94360C8D32910509F090
:1039800031C620E03EE150E040E0B601C7010E94B0
:103990000B102C0120E03EE150E040E0B401C501F5
:1039A0000E940B103C0130E020E040E058E2B601FC
:1039B000C7010E940B107C0130E020E040E058E29B
:1039C000B401C5010E940B106C01B090F001640CB1
:1039D000751CB301770C880B990B0E94FA2E2B01F2
:1039E0003C01EC0CFD1CB701FF0C880B990B0E94ED
:1039F000FA2E9B01AC01C301B2010E94823218165B
:103A000064F58B2D8970893061F530E0A3E02BE0FF
:103A10006EA57FA5269FC001279F900D11248A5A6D
:103A20009B4FFC01A1870A2E000CBB0BA95BBE4F6C
:103A30001C934AA55BA5249FD001259FB00D11249E
:103A4000AA5ABB4F19963C93E32F330FFF0BE95B48
:103A5000FE4F008382E08DA3C2CA8B2D8670863014
:103A6000A1F631E0A2E0D3CF8B2D8370833009F033
:103A700004C630E0A1E0CBCF1EA21FA218A619A653
:103A800014CB1AAE1BAE1CAE1DAE50CB0E94FA2E4C
:103A9000A50194010E9490300E94E6317093830446
:103AA00060938204D80112966D917C91072E000CD0
:103AB000880B990B0E94FA2EA3019201A2CB0196CA
:103AC0008430910509F045CBA4CB143009F0F1C244
:103AD00080E090E0A0E8BFE38093040190930501AB
:103AE000A0930601B09307013091480121963FAFA2
:103AF00021975BE0B52E4B2D3403800111240A5A27
:103B00001B4FD80112966D917C91072E000C880BEB
:103B1000990B0E94FA2E28966CAF7DAF8EAF9FAFA7
:103B20002897F80160817181072E000C880B990B92
:103B30000E94FA2E2B013C012B2D3EAD3203800159
:103B400011240A5A1B4FD80112966D917C91072EB1
:103B5000000C880B990B0E94FA2E2C966CAF7DAF4F
:103B60008EAF9FAF2C97F80160817181072E000CFA
:103B7000880B990B0E94FA2E60966CAF7DAF8EAFCA
:103B80009FAF6097F09147016596FFAF65972B2D2A
:103B90003F2F3203800111240A5A1B4FD80112967D
:103BA0006D917C91072E000C880B990B0E94FA2EC8
:103BB00069966CAF7DAF8EAF9FAF6997F80160815A
:103BC0007181072E000C880B990B0E94FA2E6B0155
:103BD0007C012B2D3EA93203800111240A5A1B4F70
:103BE000D80112966D917C91072E000C880B990BD1
:103BF0000E94FA2E6D966CAF7DAF8EAF9FAF6D9722
:103C0000F80160817181072E000C880B990B0E94CE
:103C1000FA2E4B015C016D962CAD3DAD4EAD5FAD06
:103C20006D97C701B6010E94592F64966CAF7DAFA6
:103C30008EAF9FAF6497A501940169966CAD7DAD81
:103C40008EAD9FAD69970E94592F9B01AC01649680
:103C50006CAD7DAD8EAD9FAD64970E949030649643
:103C60006CAF7DAF8EAF9FAF649760962CAD3DADCE
:103C70004EAD5FAD6097C301B2010E949030A19636
:103C80006CAF7DAF8EAF9FAFA1972C962CAD3DADA5
:103C90004EAD5FAD2C97C301B2010E94592F2B018D
:103CA0003C0160962CAD3DAD4EAD5FAD6097289662
:103CB0006CAD7DAD8EAD9FAD28970E94592F9B01B5
:103CC000AC01C301B2010E9490302B013C01A5015F
:103CD0009401C701B6010E9490304B015C012C9603
:103CE0002CAD3DAD4EAD5FAD2C9728966CAD7DAD46
:103CF0008EAD9FAD28970E94903028966CAF7DAF17
:103D00008EAF9FAF28976D962CAD3DAD4EAD5FAD9C
:103D10006D9769966CAD7DAD8EAD9FAD69970E9434
:103D200090302C966CAF7DAF8EAF9FAF2C972896BE
:103D30002CAD3DAD4EAD5FAD2897C501B4010E94DD
:103D4000592F6B017C012C962CAD3DAD4EAD5FAD76
:103D50002C97A1966CAD7DAD8EAD9FADA1970E94C5
:103D6000592F9B01AC01C701B6010E9490306B0135
:103D70007C01A1962CAD3DAD4EAD5FADA197649693
:103D80006CAD7DAD8EAD9FAD64970E94592F60964E
:103D90006CAF7DAF8EAF9FAF6097A5019401C3015B
:103DA000B2010E94592F9B01AC0160966CAD7DADB4
:103DB0008EAD9FAD60970E949030A70196010E9442
:103DC00074310E94E6311B01709383046093820476
:103DD00028962CAD3DAD4EAD5FAD289764966CAD89
:103DE0007DAD8EAD9FAD64970E94592F4B015C0154
:103DF0002C962CAD3DAD4EAD5FAD2C97C301B201FD
:103E00000E94592F9B01AC01C501B4010E94903062
:103E1000A70196010E9474310E94E6313B01709324
:103E200085046093840467E4862E61E0962E70E238
:103E3000472E71E0572EECE2AE2EE1E0BE2EE12CD3
:103E4000FBE0FF2ED401ED914D01BF2DEB02F001FF
:103E50001124EA5AFB4FC080D18002811381930163
:103E6000A101B801C6010E940B10E1E0EE1508F0B7
:103E700019C1D5018D939C93E3948E2D0E94DA0C89
:103E8000E82F880FFF0BE95BFE4FE0812F2DE20248
:103E9000F0011124EA5AFB4F228133814081518184
:103EA000B801C6010E940B10D2018D939D932D0184
:103EB000B2E0AB0EB11CE4E0EE12C4CF65962FADBC
:103EC00065973F2D2302F0011124EA5AFB4F208011
:103ED00031804280538021964FAD21974302F001FB
:103EE0001124EA5AFB4FA080B1800281138198010E
:103EF000A501B201C1010E94D81020EE3EE245E6C4
:103F000052E40E94592F6B017C0120E030E0A901AE
:103F10000E94F32E87FF0AC020E030E044EB53E418
:103F2000C701B6010E9491306B017C012EA13FA117
:103F300048A559A5C701B6010E9490300E94A80C5F
:103F40006093E0017093E1018093E2019093E301BB
:103F50005EA96BE05602F0011124EA5AFB4F608023
:103F60007180C280D3809801A501B601C3010E946F
:103F7000D81020EE3EE245E652E40E94592F4B0154
:103F80005C0120E030E0A9010E94F32E87FF0AC007
:103F900020E030E044EB53E4C501B4010E949130CD
:103FA0004B015C012EA13FA148A559A5C501B40153
:103FB0000E9490300E94A80C6093E4017093E50188
:103FC0008093E6019093E7017EAD8BE07802F001EB
:103FD0001124EA5AFB4F00811181E280F38097019E
:103FE000A801B601C3010E94D81020EE3EE245E6CA
:103FF00052E40E94592F4B015C0120E030E0A901FE
:104000000E94F32E87FF0AC020E030E044EB53E427
:10401000C501B4010E9491304B015C012EA13FA16A
:1040200048A559A5C501B4010E9490300E94A80C72
:104030006093E8017093E9018093EA019093EB01AA
:104040009701A801B201C1010E94D81020EE3EE202
:1040500045E652E40E94592F6B017C0120E030E0DC
:10406000A9010E94F32E87FF0AC020E030E044EB54
:1040700053E4C701B6010E9491306B017C012EA16F
:104080003FA148A559A5C701B6010E9490300E94E2
:10409000A80C6093EC017093ED018093EE01909376
:1040A000EF01CBC8919581959109F50191838083AA
:1040B000E3CE9EA99F3F19F1809147018F3FF9F010
:1040C0002AA53EA54AA958AD6EA17FA188A599A5AC
:1040D0000E94903020910001309101014091020135
:1040E000509103010E9491300E94A80C6AAF7BAFEF
:1040F0008CAF9DAF90E082E0AFEFAEAB27C0809178
:1041000048018F3F09F4BBC2BEADBF3F09F409C1EE
:104110002091000130910101409102015091030171
:104120006AAD7BAD8CAD9DAD0E9490302AA53EA5B9
:104130004AA958AD0E9491300E94A80C6EA37FA39B
:1041400088A799A791E083E0EFEFEEABE92F990FF5
:10415000FF0B2296FFAFEEAF2297E95BFE4FE081A7
:104160002E2F0E2E000C330B2A963FAF2EAF2A9720
:10417000A82E880FBB08D501A95BBE4FAC914A2F72
:104180000A2E000C550B26965FAF4EAF26978BE09C
:10419000A802D0011124AA5ABB4F0D911C9111976E
:1041A00012964D905C90E802F0011124EA5AFB4F00
:1041B000608171817FAF6EAF628073809301AB01CC
:1041C000B201C8010E940B10BC01990F880B990B1A
:1041D0000E94FA2E6B017C01F501EE0FFF1FE45DDA
:1041E000FE4F208031804801012E000CAA08BB0838
:1041F0007EA97F3F09F0ABC037FE03C03194219404
:1042000031082296EEADFFAD2297EE0FFF1FE45D61
:10421000FE4F6081718177FF03C0719561957109CF
:10422000620D731D072E000C880B990B0E94FA2E4D
:104230002B013C01AC019B01C701B6010E94743106
:104240006093040170930501809306019093070128
:10425000B101330C880B990B0E94FA2EA301920135
:104260000E9474316B017C016EAD7FAD601B710BE0
:10427000072E000C880B990B0E94FA2EA7019601BD
:104280000E94592F2B013C01C501B4010E94FA2E56
:104290009B01AC01C301B2010E9491300E94E63142
:1042A00070938304609382048BE026964EAD5FADDD
:1042B0002697849FF001859FF00D1124EA5AFB4F49
:1042C000028113812A966EAD7FAD2A97869FF001F9
:1042D000879FF00D1124EA5AFB4F62817381601BA6
:1042E000710B072E000C880B990B0E94FA2EA70168
:1042F00096010E94592F6B017C01B801110F880BA8
:10430000990B0E94FA2E9B01AC01C701B6010E94D5
:1043100091300E94E63170938504609384040C947C
:104320001D19FEA9FF3F09F0B7C1909147019F3FBA
:1043300011F40C941D198F3F09F0B3C13EAD93E009
:1043400080E0A3E03F3F09F0D8CE0C941D19930103
:104350004EAD5FADB201C8010E94D81020EE3EE222
:1043600045E652E40E94592F2B013C0120E030E049
:10437000A9010E94F32E87FF0AC020E030E044EB41
:1043800053E4C301B2010E9491302B013C017EA98C
:10439000072F770F110BF801EE0FFF1FEE0FFF1F16
:1043A000E052FE4F2081318142815381C301B2012D
:1043B0000E9490300E94A80C6EA37FA388A799A7A3
:1043C0002AA53EA54AA958AD0E949030209100012F
:1043D0003091010140910201509103010E949130FE
:1043E0000E94A80C6AAF7BAF8CAF9DAF000F111F6E
:1043F000F801E05EFE4F60817181072E000C880B92
:10440000990B0E94FA2E9B01AC01C701B6010E94D4
:1044100074316B017C01C0920401D0920501E092DD
:104420000601F0920701B101330C880B990B0E9431
:10443000FA2EA70196010E94592F0E94E6316B01C6
:10444000AB016AA57EA58AA998AD0E9441152B01F2
:104450003C01C501B4010E94FA2EA30192010E9401
:1044600091300E94E6317093830460938204A60128
:104470006AA57EA58AA998AD0E9409156B017C01E9
:104480008BE02696AEADBFAD26978A9FF0018B9F3D
:10449000F00D1124EA5AFB4F62817381072E000C44
:1044A000880B990B0E94FA2EA701960130CFEFEFEF
:1044B000EAAB0C94481AB801110F880B990B0E94B3
:1044C000FA2E24962CAD3DAD4EAD5FAD24970E94E3
:1044D000592FA50194010E94592FF6016083718321
:1044E0008283938322C8A5019401C701B6010E946B
:1044F000F32E87FF70C8A5019401C701B6010E9481
:1045000074316B017C01AC019B016D857E858F85CB
:1045100098890E94592F6D877E878F87988BA70176
:1045200096016D817E818F8198850E94592F6D83C0
:104530007E838F8398874FC829813A814B815C8124
:10454000652D742D832D922D0E9490306AAF7EAB25
:104550006C0181E08093F0011BAA1AAA8FEF9FE102
:104560009FA78EA761C82D813E814F8158856EA17E
:104570007AA5C3010E9490307B018EAF21969FAF38
:104580002197812F82608093F001EFEFFFE3F9AF75
:10459000E8AF0FEF1FE170C88FEF80935F041092B8
:1045A000600480936A0410926B04809375041092E7
:1045B0007604809380041092810410921A03109262
:1045C0001B0310921C0310921D0380E090E0A4EBEB
:1045D000B2E48093000190930101A0930201B09393
:1045E0000301F3C88B33914011F00C94EF1720E0D6
:1045F0003EE140E058E2B601C7010E940B102C01D9
:1046000020E03EE140E058E2B401C5010E940B10F9
:104610003C0130E020E050E040E0B601C7010E94DC
:104620000B107C0130E020E050E040E0B401C50117
:104630000E940B106C01B090F001640C751CB3016A
:10464000770C880B990B0E94FA2E2B013C01EC0C85
:10465000FD1CB701FF0C880B990B0E94FA2E9B01E1
:10466000AC01C301B2010E94823218160CF0FCC9E1
:104670008B2D8C708C3009F0FCC933E0F3C95EA936
:104680005F3F09F452CE2EAD2F3F09F44ECE93E09A
:1046900082E072E07EAB5ACD91E082E061E06EABE9
:1046A00055CD91E080E01EAA51CD2F923F924F92BE
:1046B0005F926F927F928F929F92AF92BF92CF92B2
:1046C000DF92EF92FF920F931F93CF93DF93CDB7BB
:1046D000DEB76A970FB6F894DEBF0FBECDBF282EA7
:1046E0004FEF60E08AE793E00E947F094FEF60E0C0
:1046F0008EE893E00E947F0981E08093B4028FE707
:1047000090E09093430480934204909345048093F7
:1047100044041092B4028CE0E6EBF2E0DE01119664
:1047200001900D928A95E1F71092B7021092B602AD
:104730001092B9021092B8021092BB021092BA0203
:104740001092BD021092BC021092BF021092BE02E3
:104750001092C1021092C0026E018DE0C80ED11CF1
:1047600088E0F60111928A95E9F71DE3E091E103F3
:1047700084E0E802F0011124EB5EFB4F838181119C
:104780000BC0E091E60394E0E902F0011124EB5E36
:10479000FB4F8381882359F0115049F00E94450E48
:1047A0006CE370E080E090E00E94C503DFCF81E021
:1047B0008093E60330903D015090410110923F01FB
:1047C00010923D0110924101211093C0E6E0EA8F62
:1047D00010E08FEF888F9FE1998FEFEFEF8B0FE164
:1047E0000E946E0B0E94450E0E94791590911C0448
:1047F00080911B04992309F44BC181115AC01111F6
:1048000086C0E7E4F1E091919F3F09F481E091E0F7
:10481000EB34F907C1F781116FC060918204709188
:104820008304072E000C880B990B0E94FA2E20E0BF
:1048300030E040E251E40E94743120E030EC4FEF70
:1048400053E40E9490300E94E6317093B702609367
:10485000B6026091840470918504072E000C880BC9
:10486000990B0E94FA2E20E030E040E251E40E94D1
:10487000743120E030EC4FEB53E40E9490300E9402
:10488000E6317093B9026093B80280E00E94150B84
:104890004FEF60E08EE893E00E94750A12E0EFEFC0
:1048A000E88FFFE1F98F89E98F8B09E3E1E0E0937D
:1048B0001B0480911804811106C0222009F41DC137
:1048C000123009F01AC1E12FF0E0EE0FFF1FA1E056
:1048D000B0E0AC0FBD1FAE0FBF1FEA54FD4F812FDC
:1048E000863009F4E1C02D913D91219331938F5F82
:1048F000F7CFF2E0FA8F6CCF62E081E00E941A0BF2
:104900004FEF62E08EE893E00E94750ACFCF8DEF03
:10491000810F0E94DA0CE82F880FFF0BE95BFE4F36
:1049200080818F3F09F48CC06EEF462E410E842D9E
:104930000E94DA0CE82F880FFF0BE95BFE4F8081A5
:104940008F3F09F47DC08FEF810F0E94DA0CE82FB2
:10495000880FFF0BE95BFE4F80818F3F09F470C029
:104960008090820490908304609084047090850409
:104970009301A40160E07FE080E094E10E940B10CD
:104980005C01E42C042C000CFF08F701E95BFE4FEE
:10499000E0819BE0E902F0011124EA5AFB4F6281B9
:1049A00073819301A401808191810E940B103C01CD
:1049B000EE0CFF1CE1E0F0E0EC0FFD1FEE0EFF1E21
:1049C000B501BB0C880B990B0E94FA2E2DEC3CEC28
:1049D0004CE45FE30E9474314B015C01B301770C3E
:1049E000880B990B0E94FA2E9B01AC01C501B40102
:1049F0000E9474319B01AC0160E070E080E89FE3AD
:104A00000E94903020E030E04AE754E40E94592FA1
:104A10000E94E631F70175876487442011F1F1E0C7
:104A20004F1639F182E0481661F180E00E94150BC3
:104A30004FEF60E08EE893E00E94750A1F5F0AC0A6
:104A400062E081E00E941A0B4FEF62E08EE893E093
:104A50000E94750A68EC70E080E090E00E94C50357
:104A600025CF96E6988FE6E0E98FFFEFFF8B0FE109
:104A7000DCCF8FEF888F9FE1998FE6E6EF8B06E022
:104A8000D4CFF9E9F88F89E3898F9FEF9F8BEFCF20
:104A9000882309F40ECF10921B0468EC70E080E0CC
:104AA00090E00E94C50305CF81E080931704211098
:104AB00058C086EBA82E82E0B82E760100E01017D1
:104AC000F1F1023038F0F701349780819181F501DE
:104AD00091838083F501819191915F019E8B8D8BF4
:104AE000BE016B5E7F4FC7018C199D090E94661045
:104AF0000F5FF2E0EF0EF11CE2CFF1E0F093B402B1
:104B00008F89902F26E0959587952A95E1F799272B
:104B10009093430480934204888D998D36E0959557
:104B200087953A95E1F7992790934504809344043B
:104B30001092B4028A8D181708F452CEB8CF309272
:104B40003D0181E0511001C080E08093410163E0AC
:104B500084E00E941A0B4FEF63E08EE893E00E941E
:104B6000750A6A960FB6F894DEBF0FBECDBFDF910F
:104B7000CF911F910F91FF90EF90DF90CF90BF905A
:104B8000AF909F908F907F906F905F904F903F90ED
:104B90002F9008951F920F920FB60F9211248F93AA
:104BA0009F938091E1009091E100937F9093E100C9
:104BB00083FF0FC01092E90091E09093EB001092F8
:104BC000EC0092E39093ED001092C90298E090936C
:104BD000F00082FF22C093E09093E9009091F200F0
:104BE000992319F09AE39093E80090919F029923FA
:104BF00041F090919F02915090939F02911101C0BA
:104C00005D9A9091C802992341F09091C802915009
:104C10009093C802911101C0289A84FF18C0809116
:104C2000E2008E7E81608093E2008091E1008F7EC1
:104C30008093E1008091A0028E7E80618093A0022B
:104C40009F918F910F900FBE0F901F90189580FF2E
:104C5000F7CF8091E2008E7E80618093E2008091A8
:104C6000E1008E7E8093E1008091A0028E7E8160C3
:104C7000E5CF1F920F920FB60F921124CF92DF92C1
:104C8000EF92FF920F931F932F933F934F935F9356
:104C90006F937F938F939F93AF93BF93EF93FF9304
:104CA000CF93DF93CDB7DEB76C97DEBFCDBF109249
:104CB000E9008091E80083FF25C068E0CE014596B9
:104CC0000E94FD0182EF8093E8008D8987FF39C043
:104CD0009091E80090FFFCCF982F907609F034C1B6
:104CE0009E894F89588D2F89F88C911131C0803859
:104CF00061F58091A1028093F1001092F1008EEF96
:104D00008093E8006C960FB6F894DEBF0FBECDBF5F
:104D1000DF91CF91FF91EF91BF91AF919F918F91D3
:104D20007F916F915F914F913F912F911F910F91C3
:104D3000FF90EF90DF90CF900F900FBE0F901F90DD
:104D400018959EEF9093E800C7CF1092F100D5CF51
:104D5000913059F48111D3CF4130510581F68091C2
:104D6000A1028D7F8093A102CACF933049F48111B3
:104D7000C6CF4130510519F68091A1028260F2CF71
:104D8000953041F48091E80080FFFCCF20682093AB
:104D9000E300B5CF963009F0A9C00B8D1C8D22E041
:104DA0001092E90010929D0210929C02F2122EC005
:104DB00010929B0210929A020E941E021F8299E09A
:104DC0009983FA8291E09E8390EA98879AEF998777
:104DD00020919C0230919D02275F3F4F3C832B83A3
:104DE0008D831092E90010929D0210929C02109304
:104DF0009B0200939A0249E050E0BE016F5F7F4F33
:104E000080E00E94C6010E941E0279CF10939B028F
:104E100000939A020E940A02DC0112960D911C91E5
:104E20000115110509F451C1D801ED91FC910480DF
:104E3000F581E02DBE016B5E7F4FC801099500979B
:104E400009F03EC1F80100851185EACFF3E0FF12B9
:104E50000EC08F89882309F440C0823061F440E895
:104E600069E081EE91E00E949301811148CF81E2D7
:104E70008093EB0047CF813029F440E86BE085ED6B
:104E800091E0F1CF833099F70E940A02DC0112967B
:104E9000ED90FC908E010F5F1F4F6801E114F1044B
:104EA00079F0D701ED91FC910680F781E02DB801F2
:104EB000C7010995080F111DF701E084F184EECFB9
:104EC000D8011C92F60101900020E9F73197BF014B
:104ED0006C197D0940E0C601C6CF6FEB71E0FB01A4
:104EE000449150E080E80E94C60109CF973009F450
:104EF000BECF983021F481E08093F10000CF99304B
:104F000009F0FDCE837009F0B2CFEEE0F1E081E070
:104F100031E096E32191222371F08093E9003093F0
:104F2000EB00DF0111972C912093EC009093ED00A2
:104F30008F5F873079F78EE78093EA001092EA005E
:104F40008F898093C902DBCE8B8D9C8D1092E900F6
:104F500010929D0210929C0290939B0280939A0261
:104F6000898D811192C08E899D89913A49F481324F
:104F700009F07DCF47E050E068E171E080E0B3CF19
:104F8000913209F074CF833269F48F89988DB0E043
:104F9000A0E08093140190931501A0931601B093A3
:104FA0001701ADCE803269F48091E80082FFFCCF1A
:104FB00067E088E191E00E94FD018BEF8093E800BB
:104FC0009ECE823209F09BCE8F8980931F01EEEF37
:104FD000FFE7859194918B3F9C4D51F1E0E0F8E023
:104FE0008091180190911901A0911A01B0911B01B3
:104FF000803B9440A105B105F1F480911F0180FD33
:105000001AC0EE3F8AE0F80789F587E797E79183B2
:1050100080838091600080939E0288E19BE00FB6C0
:10502000F894A895809360000FBE9093600067CEBF
:10503000EEEFFAE0D5CF808191818737974709F06D
:105040005ECEA89580916000886180936000809119
:105050009E0280936000EE3F2AE0F20789F0809183
:10506000FE0A9091FF0A9183808349CE80819181CD
:105070008737980751F29093FF0A8093FE0AC5CFB5
:105080001092FF0A1092FE0A3ACE0E940A02DC0138
:1050900012960D911C910115110509F4E8CED80165
:1050A000ED91FC910190F081E02DBE016B5E7F4F90
:1050B000C8010995811123CEF80100851185EBCF38
:1050C000181619060CF41BCED2CEF1E0FF12BECE9C
:1050D00063EC71E004CF1F920F920FB60F92112470
:1050E0002F933F938F939F93AF93BF9380918602AB
:1050F00090918702A0918802B09189023091850237
:1051000023E0230F2D3758F50196A11DB11D2093E3
:1051100085028093860290938702A0938802B093C1
:10512000890280918A0290918B02A0918C02B091A9
:105130008D020196A11DB11D80938A0290938B026E
:10514000A0938C02B0938D02BF91AF919F918F91EC
:105150003F912F910F900FBE0F901F90189526E84A
:10516000230F0296A11DB11DD2CF1F920F920FB631
:105170000F9211242F933F934F935F936F937F93DD
:105180008F939F93AF93BF93EF93FF938091B90059
:10519000887F803609F44AC0F0F5883209F4A7C048
:1051A00018F5803109F49BC0B8F4882309F4F9C0DC
:1051B000883009F494C0FF91EF91BF91AF919F9116
:1051C0008F917F916F915F914F913F912F910F90B0
:1051D0000FBE0F901F901895883109F488C0803257
:1051E00051F78093EE0214C0803409F49DC040F45E
:1051F0008033B9F38833F9F68093EE0285ECB0C0C2
:10520000803509F485C0883509F496C0883499F64C
:105210000E942E10D0CF883909F48CC038F5883719
:1052200029F050F4883611F0803729F683E0809316
:10523000F0021092840257C0883809F47BC080398C
:1052400019F0803809F0B7CF80918402803208F0DD
:1052500071C0E091840281E08E0F8093840280917E
:10526000BB00F0E0EC59FD4F80833DC0803B39F03E
:10527000E0F4803A09F479C0883A09F09CCF84E0E0
:105280008093F0021092610210926002E0915E023F
:10529000F0915F0209958091600281110FC081E059
:1052A0008093600210923E0209C0803C09F4A6CFB0
:1052B000883C09F4A3CF883B09F07DCFE0916102DF
:1052C00081E08E0F80936102F0E0E25CFD4F80810F
:1052D0008093BB00909161028091600229C080910F
:1052E000CB028093BB0085EC8093BC0064CF90918F
:1052F000ED028091EC02981758F5E091ED0281E003
:105300008E0F8093ED02F0E0E453FD4F8081E9CFF2
:10531000E091ED0281E08E0F8093ED028091BB0061
:10532000F0E0E453FD4F80839091ED028091EC0218
:105330009817C8F285E8D8CFE091ED0281E08E0F92
:105340008093ED028091BB00F0E0E453FD4F808339
:105350008091EF0281115CCF81E08093CA0284EAE0
:105360008093BC001092F00226CF85EC8093BC00A5
:105370001092F00280918402803230F4E091840235
:10538000F0E0EC59FD4F10826091840270E0E091F2
:105390006202F091630284E692E009951092840221
:1053A0000ACF1092EE0234CF1F920F920FB60F92D7
:1053B00011242F933F934F935F936F937F938F931A
:1053C0009F93AF93BF93EF93FF938091DB01803165
:1053D00018F18091B40281110EC080913A018823A6
:1053E00021F08091B002882321F00E94A808109239
:1053F000B0021092DB01FF91EF91BF91AF919F91AD
:105400008F917F916F915F914F913F912F910F906D
:105410000FBE0F901F9018958091DB018F5F8093D6
:10542000DB01E9CF109221031092200388EE93E074
:10543000A0E0B0E08093220390932303A093240381
:10544000B093250329EA31E030931F0320931E0314
:105450002FEF3FEF30932B0320932A031092710319
:10546000109270038093720390937303A09374035C
:10547000B09375038BEB91E090936F0380936E0371
:10548000E6E5F4E08FEF1086818712863B9694E084
:10549000ED38F907C1F7E5E1F4E0128213823496A2
:1054A00084E0E134F807C9F7EEEDF3E085E194E03C
:1054B00021E01082248335968E179F07D1F7EAE703
:1054C000F3E084E613821482158216821782108A12
:1054D000118A828B838B749693E0EE3DF90791F7E6
:1054E0000895CF93DF9300D000D0CDB7DEB7789486
:1054F00084B5826084BD84B5816084BD85B58260D9
:1055000085BD85B5816085BD80916E008160809389
:105510006E001092810080918100826080938100F2
:105520008091810081608093810080918000816002
:10553000809380008091910082608093910080919F
:1055400091008160809391008091900081608093B0
:1055500090008091C10084608093C1008091C1005F
:1055600082608093C1008091C10081608093C100FE
:105570008091C30081608093C3008091C0008260ED
:105580008093C0008091C20081608093C2008091AE
:105590007A00846080937A0080917A0082608093A0
:1055A0007A0080917A00816080937A0080917A00FD
:1055B000806880937A001092C9021092A102109222
:1055C000A0028091D70081608093D70080EA809309
:1055D000D80089B5806189BD89B5826089BD09B46B
:1055E00000FEFDCF61E070E080E090E00E94C50326
:1055F0008091D8008F7C80618093D8008091E000FA
:10560000807F8093E0008091E1008E7E8093E100B6
:105610008DE08093E200559A209A8091A802811132
:1056200013C01092A3021092A2028BEE91E090930D
:10563000A5028093A40284E390E09093A702809354
:10564000A60281E08093A8020E94360862EA72E016
:105650000E947A070E9405128090280190902901EB
:10566000A0902A01B0902B0160913001709131011E
:10567000072E000C880B990B0E94FA2EA5019401AD
:105680000E94592F0E94E6316B01709331016093A3
:10569000300160912C0170912D01072E000C880BB8
:1056A000990B0E94FA2EA50194010E94592F0E9485
:1056B000E63170932D0160932C014091320150919D
:1056C00033019601D6010E9415336B017C019A01CA
:1056D000DA010E9415336C0D7D1D8E1D9F1D0E94E9
:1056E000FA2E0E949D320E94E6317093270160934A
:1056F0002601709325016093240170932301609328
:10570000220170932101609320018FEF9FEF90930E
:105710002B0380932A0381E090E0A0E0B0E0809327
:10572000220390932303A0932403B093250380E0E6
:1057300094E1909383048093820480E09FE09093AF
:1057400085048093840484E080938B0482E08093BA
:105750008A044FEF60E08EE893E00E94750A2FEF15
:105760004FEF6FEF84E00E94FD0AF89410928000E2
:105770001092810010928500109284008FE79EE3C2
:10578000909389008093880089E0809381008091C4
:105790006F00826080936F007894AA24A394B12C48
:1057A00021E4822E24E0922E7724739404E111E008
:1057B0000E94450E8091B50281117EC085E1C82E00
:1057C00084E0D82EF12CE12CF6018281938199237B
:1057D00009F4E3C0811133C08E2DEE2071F1F8E0A1
:1057E000EF16F10458F48150950101C0220F8A95FB
:1057F000EAF780914104822B809341041093B00218
:1058000023E0E216F104C8F4F701ED5CFE4F60807E
:10581000069DF0011124E658FC4F818981110DC0CD
:105820004FEF60E0CF010E94750A6110ABC02FEF0F
:105830004FEF6FEF80E00E94FD0AF6017282FFEFEA
:10584000EF1AFF0A24E0C20ED11C3BE0E316F1047C
:1058500009F0BACF80911704882371F18091B302C7
:1058600081112AC08091B102882331F08AE08093AF
:10587000B30280E00E9455238091EC03811103C0A4
:1058800081E00E9444098091E703811103C082E016
:105890000E9444098091F603811103C083E00E94B5
:1058A00044098091E703811107C08091EC038111C5
:1058B00003C086E00E94440980914001882331F0B2
:1058C0008091C702863911F40E94E6080E9479157A
:1058D00080913B0181118CC02091C5023091C6029C
:1058E0008091C3029091C402211540E4340708F06E
:1058F0007DC041E0811550E4950708F440E04093F5
:105900003A014091C20241112AC01093B4022115FC
:10591000E0E43E0714F02FEF3FE337FF02C030E032
:1059200020E0B6E035952795BA95E1F7309343042A
:10593000209342048115F0E49F0714F08FEF9FE35A
:1059400097FF02C090E080E0A6E095958795AA9524
:10595000E1F790934504809344041092B402FAE076
:105960006F2E8EE193E00E94B702892B09F43DC1AE
:105970008EE193E00E9475028334E9F581E00E9494
:105980005523EFCF4FEF60E081E00E94E60A4FEF32
:1059900062E082E00E94E60A50CF882309F44FCFEC
:1059A0008E2DEE20A9F0883070F48150950102C050
:1059B000220F331F8A95E2F7C90180959091410427
:1059C0008923809341041093B002F601128237CFED
:1059D0008091B302811106C083E00E942F0B1092C8
:1059E000B302F3CF8A30D9F38150F7CF41E087CFAC
:1059F00010933A01B4CF843709F0A5C00E94E6089D
:105A00006B017C01AC019B010E94E132882349F0CB
:105A100089EC91E00E94E30C85ED91E00E94E30C9B
:105A2000A0CF16012701E89457F82FEF3FEF4FE77B
:105A30005FE7C201B1010E94E13281110DC02FEF79
:105A40003FEF4FE75FE7C201B1010E94F32E181646
:105A50001CF48DEC91E0DECF2FEF3FEF4FE75FE4DA
:105A6000C701B6010E94823218161CF481ED91E044
:105A7000D1CF2FEF3FEF4FE75FECC701B6010E9498
:105A8000F32E87FDF3CF20E030E0A901C701B60176
:105A90000E94F32E87FF09C06DE28EE193E00E9421
:105AA0004F02F7FAF094F7F8F0942AE037ED43EA62
:105AB0005BE3C701B6010E9491301B012C010E94DB
:105AC000ED316B017C010E94F82E9B01AC01C201FB
:105AD000B1010E9490301B012C014AE0C701B601C0
