:100000000C9411010C9439010C9439010C943901B0
:100010000C9439010C9439010C9439010C94390178
:100020000C9439010C9439010C9472250C94E1253F
:100030000C9439010C9439010C9439010C94390158
:100040000C9439010C947C290C9439010C943901DD
:100050000C9439010C9439010C9439010C94132837
:100060000C9439010C9439010C9439010C94390128
:100070000C9439010C9439010C9439010C94390118
:100080000C9439010C9439010C9439010C94390108
:100090000C945D280C9439010C9439010C943901AD
:1000A0000C9439010C9439010C943901084AD73B5E
:1000B0003BCE016E84BCBFFDC12F3D6C74319ABD37
:1000C00056833DDA3D00C77F11BED9E4BB4C3E915B
:1000D0006BAAAABE000000803F05A84CCDB2D44E4A
:1000E000B93836A9020C50B9918688083CA6AAAA4C
:1000F0002ABE000000803F00070605040100080A30
:100100000B0C0D0900000000240027002A002D0020
:10011000300000000000250028002B002E003100D8
:10012000040404040403040502020202040302029C
:10013000020206060606060604040202020404047D
:1001400008020110408040102040804080080204D6
:10015000018040201002011080102040402000004B
:10016000000200090F0000030401000C0000000061
:1001700000000000000000000000000000080B006C
:10018000020202000009040000010202000005242E
:1001900000100105240101010424020605240600C3
:1001A000010705810310004009040100020A000054
:1001B000000705020240000007058302400000041A
:1001C00003090412010002EF0201404123488000AC
:1001D000010102030141726475696E6F204C4C434A
:1001E0000047554E3449522050330005010902A101
:1001F000010901A10085010509190129081500253A
:1002000001750195088102050109300931150026A3
:10021000FF00350046FF00751095028102C0C00046
:10022000BA2911241FBECFEFDAE0DEBFCDBF11E047
:10023000A0E0B1E0E0ECF5E602C005900D92A83D2B
:10024000B107D9F724E0A8EDB1E001C01D92AD38A7
:10025000B207E1F711E0C1E1D1E004C02197FE014E
:100260000E94B932C031D107C9F70E94192A0C94F3
:10027000DE320C940000FC018091C902882311F148
:100280003FB7F89482E08093E9002091F200822F3A
:1002900090E01816190614F481E090E0882339F0F4
:1002A000289A44E64093C8024091F10040832223FB
:1002B00039F02091F200211103C02BE62093E800D1
:1002C0003FBF08958FEF9FEF089540919C0250919A
:1002D0009D0220919A0230919B0242175307B4F479
:1002E0009091E8009570E1F39091E80092FD19C0BB
:1002F0008093F10080919C0290919D0201968F73F2
:100300009927892B19F48EEF8093E80080919C0245
:1003100090919D02019690939D0280939C0281E0B2
:10032000089580E00895EF92FF920F931F93CF936B
:10033000DF93F82E192FE62E042F81E0860F880F09
:100340000E94650183E00E946501CF2DD12FEC0E44
:10035000FD2EF11CCE15DF05B9F007FF13C0FE011D
:1003600084910E946501182F80E00E94650181231D
:1003700021968111EFCFDF91CF911F910F91FF90C7
:10038000EF9008958881EDCF81E0F5CFDF92EF9275
:10039000FF920F931F93CF93DF93D82E8A01EB0127
:1003A0007B01E40EF51ECE15DF0559F0D7FE12C015
:1003B000FE0184910E94650121968111F4CF0FEF17
:1003C0001FEFC801DF91CF911F910F91FF90EF9028
:1003D000DF9008958881EECF2FB7F89487708093CF
:1003E000E9009091E800892F807295FF04C09091F8
:1003F000F20080E4891B2FBF0895615030F02091F6
:10040000F100FC0120830196F8CF289A84E68093BE
:10041000C80208958091920281110DC082E08093FC
:100420008E0284E080938F021092910210929002CB
:1004300081E0809392028EE892E008950F931F93DB
:10044000CF93DF931F92CDB7DEB782E0898342E47A
:1004500050E06DE771E080E80E94C6010E940A0248
:10046000DC0112960D911C910115110589F0D8013E
:10047000ED91FC910280F381E02DBE016F5F7F4F13
:10048000C801099597FD04C0F80100851185ECCFDE
:1004900089810F90DF91CF911F910F910895CF9394
:1004A000DF931F92CDB7DEB76983DC01ED91FC913C
:1004B0000280F381E02D41E050E0BE016F5F7F4F8D
:1004C00009950F90DF91CF91089583E08093E90023
:1004D0008091F200882319F08AE38093E800089560
:1004E00083E00E94EC0190E00895CF93DF931F9288
:1004F000CDB7DEB7FC018485958597FD08C02FEF49
:100500003FEF358724870F90DF91CF910895CE017B
:1005100001960E943B01019719F4898190E0F3CF85
:100520008FEF9FEFF0CF0F931F93CF93DF931F9227
:10053000CDB7DEB78C01FC018485958597FF0BC094
:10054000CE0101960E943B01019771F4898190E0F0
:10055000F80195878487F801848595850F90DF9150
:10056000CF911F910F9108958FEF9FEFF1CFFC0175
:100570008485958597FD0BC09FB7F89482E08093A2
:10058000E9008091F2009FBF90E0019608959FB727
:10059000F89482E08093E9008091F2009FBF90E0A0
:1005A0000895282F30E0F901E25AFE4F9491F901A5
:1005B000E15CFE4F8491205E3E4FF901249122239D
:1005C00009F430C09923E9F091509F30D0F4E92F1D
:1005D000F0E0E351FD4F0C94B9321B031F03FC0202
:1005E00013031703010301030103220328032C0350
:1005F0003003360301033A03909180009F77909374
:100600008000E22FF0E0EE0FFF1FEE5EFE4FA5919F
:10061000B4919FB7F894EC91611132C080958E230C
:100620008C939FBF0895909180009F7DE8CF90911B
:100630008000977FE4CF94B59F7794BDE2CF94B5C7
:100640009F7DFBCF909190009F7790939000D9CFA2
:10065000909190009F7DF9CF90919000977FF5CF7A
:100660009091C0009F779093C000CBCF9091C00035
:100670009F7DF9CF9091C200977F9093C200C1CF28
:100680008E2BCECFCF93DF9390E0FC01E15CFE4F49
:100690002491805E9E4FFC0184918823D1F090E0EC
:1006A000880F991FFC01EC5FFE4FA591B491FC01EE
:1006B000EE5EFE4FC591D49161110EC09FB7F894C4
:1006C0008C91E22FE0958E238C932881E223E8839E
:1006D0009FBFDF91CF9108958FB7F894EC91E22BF3
:1006E000EC938FBFF6CF3FB7F89480918A02909138
:1006F0008B02A0918C02B0918D0226B5A89B05C0FB
:100700002F3F19F00196A11DB11D3FBFBA2FA92F90
:10071000982F8827BC01CD01620F711D811D911D8D
:1007200042E0660F771F881F991F4A95D1F70895F9
:100730008F929F92AF92BF92CF92DF92EF92FF92F1
:100740004B015C010E9473036B017C010E947303E7
:100750006C197D098E099F09683E734081059105DA
:10076000A8F321E0821A9108A108B10888EEC80E0A
:1007700083E0D81EE11CF11C81149104A104B10492
:1007800029F7FF90EF90DF90CF90BF90AF909F90B0
:100790008F9008957F928F929F92AF92BF92CF9247
:1007A000DF92EF92FF920F931F93CF93DF93C82EA8
:1007B0008B017A018091C902811110C08FEF9FEFE8
:1007C000DF91CF911F910F91FF90EF90DF90CF902D
:1007D000BF90AF909F908F907F9008958091A002DE
:1007E00080FF05C08091E00082608093E000CE2D04
:1007F000DF2DD12C8AEFB82E8C2D8770982E8C2D62
:100800008072882E8C2D8074782E9AE3A92E2097E2
:1008100019F4DD2009F452C08C2D0E94EC018111E5
:100820000AC0BA94BB2051F261E070E080E090E031
:100830000E949803ECCF8C171D0611F00CF08C2F42
:100840009FB7F8949092E9002091E80025FD02C03E
:100850009FBFDDCF282F30E0C21BD30B882029F0AB
:100860008150A0F01092F100FBCFF801C7FC0AC044
:10087000815050F041914093F100FACF4491409360
:10088000F10031968150D0F7020F131FDD2021F0C7
:10089000A092E800D12CDCCF8091E80085FD07C054
:1008A000A092E800DD24D394209791F2F3CF209713
:1008B00079F6772069F2A092E800CACF5D9A84E6C3
:1008C00080939F02C7017CCFCF93DF93EC0180918F
:1008D0001E01882331F083E00E94CA03181619060E
:1008E00034F081E090E09B838A8380E090E0DF91A8
:1008F000CF9108952FB7F894609186027091870286
:1009000080918802909189022FBF08950F931F93C1
:100910000E947A0460932603709327038093280330
:10092000909329038EE193E00E94930297FF1DC0EC
:100930000E947A0400912603109127032091280336
:1009400030912903601B710B820B930B00912203E2
:100950001091230320912403309125036017710720
:1009600082079307F8F28FEF9FEF1F910F91089581
:10097000CF92DF92EF92FF92CF930E948604FC0108
:1009800097FD4EC08D32910521F0C0970A9708F06F
:1009900040C0C12CD12C7601C0E0E130F105D1F08E
:1009A000ED32F105D9F1CF01C0970A9798F4AAE08A
:1009B000B0E0A70196010E94F62F6F01FF0FEE082D
:1009C000FF08C60ED71EE81EF91E80E3C81AD1081C
:1009D000E108F1088EE193E00E9475020E9486040E
:1009E000FC01C0970A97C8F2E130F105B1F2CC23BF
:1009F00041F0F094E094D094C094C11CD11CE11C4F
:100A0000F11CC701B601CF91FF90EF90DF90CF901E
:100A100008958EE193E00E947502AFCFC1E0DACF76
:100A2000C12CD12C7601EDCF20916002260F332707
:100A3000331F21323105ECF42091F002FC0190E0EB
:100A400080E0243069F082E00895A0916002219155
:100A5000AC01425C5D4FA40FB52FB11D2C930196E4
:100A6000861798F380916002680F6093600280E0BF
:100A7000089581E008951092F00281E08093EF02E2
:100A80001092CA0261E082E00E94D10261E083E03C
:100A90000E94D102E9EBF0E080818E7F808380812B
:100AA0008D7F808388E48093B80085E48093BC00C8
:100AB0000895CF93DF9391E090933D028823B9F09E
:100AC000C091B800D091BA008091BC008A7B80931D
:100AD000BC0060E082E00E94D10260E083E00E94FE
:100AE000D1020E943B05D093BA00C093B800DF91B9
:100AF000CF9108958F929F92AF92BF92CF92DF9243
:100B0000EF92FF920F931F93CF93DF93D09119032E
:100B1000D13208F0D7C0182FC09118030E94730378
:100B20006B017C018091F00281116BC082E08093A7
:100B3000F0021093EF028FEF8093EE021092ED021D
:100B4000D093EC02A8EFB2E0ECECF2E080E0D81336
:100B500091C01092CB028091CB02CC0FC82BC093D6
:100B6000CB028091CA02813009F088C01092CA027B
:100B70000E9473036B017C018091CB028093BB00C8
:100B80008091F2029091F302A091F402B091F502EB
:100B9000892B8A2B8B2BA1F00E9473030091F20208
:100BA0001091F3022091F4023091F5026C197D0945
:100BB0008E099F09061717072807390708F442C04E
:100BC0008091BC0083FDD8CF85EC8093BC000E944F
:100BD00073036B017C018091F002823009F450C0F4
:100BE0008091EE028F3F09F46FC08091EE02803257
:100BF00009F46CC08091EE02803309F469C084E08E
:100C000026C08091F2029091F302A091F402B0917B
:100C1000F502892B8A2B8B2B09F484CF0E94730356
:100C20008090F2029090F302A090F402B090F5024E
:100C30006C197D098E099F0986169706A806B906C4
:100C400008F070CF8091F1020E94590585E0109262
:100C5000F702109219031092F602DF91CF911F91C3
:100C60000F91FF90EF90DF90CF90BF90AF909F904B
:100C70008F9008959D9191938F5F69CF85EEA5CF59
:100C80008091F2029091F302A091F402B091F502EA
:100C9000892B8A2B8B2B09F49ECF0E947303009122
:100CA000F2021091F3022091F4023091F5026C19D6
:100CB0007D098E099F09061717072807390708F0CD
:100CC0008ACFC0CF81E0C3CF80E0C1CF82E0BFCF69
:100CD00083E0BDCF089508950895E0913C0280918E
:100CE0003B02E81730F4F0E0E55EFD4F808190E0D4
:100CF00008958FEF9FEF089590913C0280913B0201
:100D00002FEF3FEF981748F4E92FF0E0E55EFD4F35
:100D1000208130E09F5F90933C02C901089580914B
:100D20003B0290913C02891B990B0895CF92DF9270
:100D3000EF92FF920F931F93CF93DF937C01CB0130
:100D40008A012091F602222389F0EB016B01C40E87
:100D5000D51ECC15DD0569F06991D701ED91FC91A7
:100D60000190F081E02DC7010995F3CF642F0E9417
:100D70001405C801DF91CF911F910F91FF90EF9063
:100D8000DF90CF900895CF93DF931F92CDB7DEB75A
:100D900069832091F6022223F9F020911903203271
:100DA00058F021E030E0FC013383228390E080E0C2
:100DB0000F90DF91CF9108958091F702E82FF0E036
:100DC000E850FD4F998190838F5F8093F702809365
:100DD000190381E090E0ECCF61E0CE0101960E9422
:100DE0001405F7CF90E080E00895DC01FB01129636
:100DF0002C911297848195812817190641F49181CD
:100E00008081813A31F49D7F81E0913009F080E06A
:100E100008958132E1F79B3029F482811F968C93EB
:100E200081E008959A3099F7828150968C93F8CF9B
:100E3000AF92BF92CF92DF92EF92FF920F931F93E8
:100E4000CF93DF931F92CDB7DEB77C0169836A0130
:100E5000590141E050E0BE016F5F7F4FFC0183818B
:100E60000E94CA038C0197FD0BC0F7018381A50185
:100E7000B60180640E94CA03080F191F97FD8C01F8
:100E8000C8010F90DF91CF911F910F91FF90EF90CC
:100E9000DF90CF90BF90AF900895FC01A385B485FB
:100EA000109771F47487638785859685DB011496A6
:100EB0002D913C91820F931F968785870895DC01C1
:100EC0008D919C9111970097D1F76D937C93ECCF06
:100ED000DC01FB0188E4808389E4818384E48283EC
:100EE0001D969C911D979F709F5B93831D968D917E
:100EF0009C9124E0969587952A95E1F78F708F5BFA
:100F0000848385E00895EF92FF920F931F93CF9310
:100F1000DF93FB012081213871F52381223259F5BD
:100F2000DC0112964C91248135814217130619F584
:100F3000EC010B851C85F12CE12C0115110589F0C4
:100F4000F801448155816281738180E80E94C60165
:100F50008F3F980749F0E80EF91ED8010D911C91BA
:100F6000ECCF81E08F87C701DF91CF911F910F9167
:100F7000FF90EF90089590E080E0F6CFCF93DF935D
:100F8000CDB7DEB769970FB6F894DEBF0FBECDBF01
:100F9000FC01DB018C918F5F8C939E012D5F3F4F95
:100FA0008DE0D9011D928A95E9F729E0298384E033
:100FB0008A8391E09D8383E08E832A8721E22B87B9
:100FC0009C879D879F8722E2288B27E02B8B25E03B
:100FD0002C8B8E8B20E430E0388F2F8B998F828181
:100FE0008B8395858685998B8A8B838180688D8B91
:100FF00049E150E0BE016F5F7F4F80E00E94C60173
:1010000069960FB6F894DEBF0FBECDBFDF91CF91CA
:101010000895CF93DF9380911302811167C081E01F
:1010200080930602809307022CE032E0309309029D
:101030002093080210920B0210920A0221E931E07B
:10104000309303022093020210920E0210920D02BE
:101050001092100210920F028093110280931202DC
:1010600081EC80930C020E940A02FC018181909124
:101070000602482F490F5527551F483051059CF54A
:10108000A281B381109709F522E032E033832283F5
:101090002081209304028093050280910702820F31
:1010A000808320910802A22FB09109028A2F821B0F
:1010B0008917C8F481813D91C82FD0E0C45FDE4F0D
:1010C00038838F5F8183F2CFD90118962D913C919F
:1010D000199721153105C1F722E032E019963C93AA
:1010E0002E931897D5CF81E08093130282E092E08F
:1010F000DF91CF9108950E94090825E030E041E496
:1011000054E061E00C941807FC0140837283618312
:10111000942F9095DB0111968C911197892311964C
:101120008C93A181B28112968C911297482B1296C2
:101130004C9323830895CF93C42F91E09093F602AC
:10114000809318031092F702109219038EE693E031
:101150000E94C3066C2F8EE693E00E94C30681E0D6
:101160000E947A056CE370E080E090E0CF910C94EF
:1011700098038F929F92AF92BF92CF92DF92EF929D
:10118000FF92E8EFF0E0E49190917B008E2F880FC2
:10119000880F80729F7D892B80937B00E770E064CD
:1011A000E0937C0080917A00806480937A00809143
:1011B0007A0086FDFCCF6091780070917900072E4F
:1011C000000C880B990B0E94A42E23E030E040EA2B
:1011D0005BE30E94032F20E030E040E05FE30E94E9
:1011E0003A3020E030E048EC52E40E94032F6B01DB
:1011F0007C0180900A01912CB12CA12C0E9490318D
:101200009B01AC01281939094A095B09ADE9BFEF17
:101210000E94043020910B0130E050E040E028199A
:1012200039094A095B090E94D72F2D398FEF3807FA
:10123000480758079CF0121613061406150684F08A
:101240002C5920938C03C701B601FF90EF90DF90DB
:10125000CF90BF90AF909F908F90089521E0F1CFF5
:1012600024E6EFCF9091B302981710F48093B30265
:1012700008951F93CF93DF9341E060E388E50E94D8
:101280009B0848E060E388E50E949B08D0E0C0E04E
:1012900017E080914201FE01189FE00DF11D11241D
:1012A000EB5AFE4F4081442339F0FE01E25BFE4FD2
:1012B000608188E50E949B082196C730D10549F7D7
:1012C00043E363E388E50E949B0848E060E388E528
:1012D000DF91CF911F910C949B088F929F92AF92B8
:1012E000BF92CF92DF92EF92FF921F93CF93DF9343
:1012F000FC012089222309F472C0F42EE62EEC01B1
:10130000662309F444C0442309F441C00E947A04CE
:101310006C837D838E839F83188189816E2D8823C2
:1013200041F16B8970E090E080E00E94A42E20E003
:1013300030E048EC52E40E941E314B015C01EF9C0E
:10134000B0011124072E000C880B990B0E94A42ECB
:101350009B01AC01C501B4010E94032F0E94903192
:101360006B01EB0161E0812F0E944203209789F419
:1013700060E0812FDF91CF911F91FF90EF90DF9080
:10138000CF90BF90AF909F908F900C94D1021B8212
:10139000C3CFCF3FD10511F461E0EBCFE12FF0E0F7
:1013A000E25AFE4FE491E150EF3008F087C0F0E0E0
:1013B000E452F64F0C94B932EB09FB09000A0A0A11
:1013C000140A5E0A5E0A5E0A1E0A280A320A3C0AEB
:1013D000490A5E0A510A84B5806884BDC7BCDF91A2
:1013E000CF911F91FF90EF90DF90CF90BF90AF9083
:1013F0009F908F90089584B5806284BDC8BCEFCF64
:1014000080918000806880938000D0928900C09293
:101410008800E5CF80918000806280938000D09228
:101420008B00C0928A00DBCF80918000886080931F
:101430008000D0928D00C0928C00D1CF809190001E
:10144000806880939000D0929900C0929800C7CF96
:1014500080919000806280939000D0929B00C09217
:101460009A00BDCF80919000886080939000D092C8
:101470009D00C0929C00B3CF8091C0008068809393
:10148000C0008091C0008F7B8093C000C092CF00CD
:10149000A6CF8091C00080628093C000C092D0002F
:1014A0009ECF8091C20088608093C2008091C2006C
:1014B0008B7F8093C200C092D20091CFC038D105FB
:1014C0000CF06ACF55CF8F929F92AF92BF92CF927E
:1014D000DF92EF92FF921F93CF93DF93EC018A810B
:1014E000680F6A83842F90E09F878E87888988237E
:1014F00009F44EC08B8181114BC0142F0E947A04D5
:10150000CC80DD80EE80FF806C197D098E099F09FB
:101510000E94A22E6B017C016C857D8590E080E0AD
:101520000E94A22E4B015C016A8970E090E080E08D
:101530000E94A42E20E030E048EC52E40E941E31CC
:101540009B01AC01C501B4010E941E314B015C013D
:101550006A857B8590E080E00E94A22E9B01AC0111
:10156000C501B4010E943B309B01AC01C701B6012B
:101570000E942C3287FD0CC0412F61E0CE010E94F9
:101580006D0981E08B838A81882311F081508A83E1
:10159000DF91CF911F91FF90EF90DF90CF90BF90A0
:1015A000AF909F908F90089590910102992391F0B0
:1015B000282F30E02E5F3F4F54E1529FC001539FD0
:1015C000900D112486589C4FFC012189211102C0E5
:1015D0000C94630A08951F93CF93DF93C82F142FA1
:1015E000D22F462F682F80E00E94D40A412F6C2F03
:1015F00081E00E94D40A4D2F6C2F82E0DF91CF91C1
:101600001F910C94D40A2FEF4FEF6FEF0C94EB0A5D
:10161000623049F0633059F0613061F420E040E01D
:101620006FEF0C94EB0A20E04FEF60E0FACF2FEF62
:1016300040E0FBCF862F0C94030B0F931F93CF93A7
:10164000DF93D82FAEEDB3E085E194E01396EC91F3
:10165000139724E0E202F0011124EB5EFB4F1382AA
:1016600015968A179B0791F72D2F30E08901055CAD
:101670001E4FDB3080F4F80180818F5F27563E4F8C
:10168000F9019081981708F480E0F8018083D73041
:1016900011F40E943909F801C081CF5F4FEF6C2F20
:1016A0008EE893E00E94630A6D2F8C2FDF91CF911B
:1016B0001F910F910C94080B0F931F93CF93DF93FF
:1016C00080910002882311F180913901882309F467
:1016D00049C080913C01882309F444C04FEF60E089
:1016E00080E00E94D40AE1E0F0E0ED5CFE4F8081F2
:1016F00094E1989FF0011124E658FC4F21892111B3
:1017000005C04FEF60E0CF010E94630ACAE7D3E053
:1017100088898823E9F08B81882361F10E947A040B
:101720000C811D812E813F81AB01BC01401B510BFF
:10173000620B730B8A859B85B0E0A0E048175907C0
:101740006A077B0728F04FEF60E0CE010E946D0929
:10175000649683E0CE3DD807D9F6DF91CF911F91F3
:101760000F9108952FEF4FEF6FEF80E00E94EB0A8B
:10177000E0E0BACF8A81882359F34E8560E0CE013C
:101780000E94630AE5CFCF92EF920F931F93CF93FE
:10179000DF93EC016883488B3B872A871D870C8782
:1017A000E982CB8A442379F0862F61E00E944203CC
:1017B0004FEF60E0CE01DF91CF911F910F91EF903D
:1017C000CF900C946D09DF91CF911F910F91EF9005
:1017D000CF900895EF92FF921F93CF93DF937C01F8
:1017E00091E050E0440F551F3BE0961738F5292F44
:1017F000E701C90FD11D97FDDA951216ECF47A9125
:1018000019817303D0011124A40FB51FAA5ABB4F2D
:101810001303F0011124E40FF51FEA5AFB4F0D905A
:10182000BC91A02D0190F081E02DEA17FB0724F474
:10183000188379832150E1CF9F5FD7CFDF91CF917C
:101840001F91FF90EF9008958F929F92AF92BF9259
:10185000CF92DF92EF92FF920F931F93CF93DF937C
:10186000EC018090DC019090DD01A090DE01B09051
:10187000DF0120E030E040EA51E4C501B4010E94FC
:101880003A300E9490316B0120E030E040EA51E4B0
:10189000C501B4010E943B300E949031AB01CC16CF
:1018A000DD061CF4C617D707ACF184EB90E09C0171
:1018B000241B350B2C173D072CF48C199D09C817D8
:1018C000D9075CF1C6018C549F4F8C179D0734F4E7
:1018D000CA018D549F4F8C179D0714F588E691E03F
:1018E0009C01241B350B2C173D07ECF48C199D092A
:1018F000C817D907C4F48BE391E0DF91CF911F9112
:101900000F91FF90EF90DF90CF90BF90AF909F909E
:101910008F9008958DE290E0F0CF87E890E0EDCFD2
:1019200081EE90E0EACF8FEF9FEFE7CFCF92DF928B
:10193000EF92FF926B017C0120E030E044EB53E436
:101940000E942C3287FD09C020E030E044EB53E4D4
:10195000C701B6010E943A30EDCF20E030E0A90186
:10196000C701B6010E949D2E87FF0BC020E030E02A
:1019700044EB53E4C701B6010E943B306B017C018C
:10198000ECCFC701B601FF90EF90DF90CF900895A4
:1019900084302CF493E0981B9C7F890F0895845029
:1019A000F7CFFC0101900020E9F73197AF01481B08
:1019B000590BBC018EE193E00C9464048F929F92CA
:1019C000AF92BF920F931F93CF93DF93CDB7DEB744
:1019D000A1970FB6F894DEBF0FBECDBF19A242305B
:1019E00008F44AE08E010F5D1F4F842E912CB12C1C
:1019F000A12CA50194010E940930E62FB901CA016A
:101A0000EA30F4F4E05DD801EE938D01232B242B12
:101A1000252B79F790E080E0109719F0CD010E9416
:101A2000D10CA1960FB6F894DEBF0FBECDBFDF91EB
:101A3000CF911F910F91BF90AF909F908F9008957D
:101A4000E95CE1CFCF92DF92EF92FF92CF93DF93E9
:101A50006B017C016DE28EE193E00E944F02EC018C
:101A600066277727CB016C197D098E099F094AE00B
:101A70000E94DE0C8C0F9D1FDF91CF91FF90EF90A5
:101A8000DF90CF9008958F929F92AF92BF92CF92A6
:101A9000DF92EF92FF920F931F93CF93DF93D82F94
:101AA0008B01C42F0E9473036B017C018091F002B3
:101AB000811166C081E08093F0028093EF029FEF76
:101AC0009093EE021092ED029C0F9093EC028093A3
:101AD000CB028091CB02DD0FD82BD093CB0280912B
:101AE000CA02813009F097C01092CA020E947303A3
:101AF0006B017C018091CB028093BB008091F2024C
:101B00009091F302A091F402B091F502892B8A2BF7
:101B10008B2BA1F00E9473038090F2029090F3024D
:101B2000A090F402B090F5026C197D098E099F090E
:101B300086169706A806B90608F443C08091BC0033
:101B400083FDD8CF85EC8093BC000E9473036B01AA
:101B50007C018091F002813009F45FC08091ED0238
:101B60008C1708F07CC08091ED02ECECF2E0ABE168
:101B7000B2E090E0981751F121912D939F5FFACF39
:101B80008091F2029091F302A091F402B091F502DB
:101B9000892B8A2B8B2B09F489CF0E9473038090A9
:101BA000F2029090F302A090F402B090F5026C194A
:101BB0007D098E099F0986169706A806B90608F0C2
:101BC00075CF8091F1020E94590580E010923C028D
:101BD00080933B02D0E08C171D0609F042C07801CB
:101BE0008EE693E00E947C06F70181937F01CF018E
:101BF000801B910B8C179D079CF381E0DF91CF91A7
:101C00001F910F91FF90EF90DF90CF90BF90AF901A
:101C10009F908F90089585EE96CF8091F2029091DB
:101C2000F302A091F402B091F502892B8A2B8B2B41
:101C300009F48FCF0E9473038090F2029090F30218
:101C4000A090F402B090F5026C197D098E099F09ED
:101C500086169706A806B90608F07BCFB2CF8C2F60
:101C600084CF80E0CBCF2F923F924F925F926F92C2
:101C70007F928F929F92AF92BF92CF92DF92EF921C
:101C8000FF920F931F93CF93DF93CDB7DEB7649787
:101C90000FB6F894DEBF0FBECDBF0EED13E091EB93
:101CA000A92E92E0B92E28EFC22E21E0D22EE5E334
:101CB000F1E0F12C33243394D80111968D919C914D
:101CC000DC01EC90D8018C91E82298012B5F3F4F0A
:101CD0003E872D87C5010196988B8F87D601149674
:101CE000BA8BA98B9F012E5F3F4F3C8B2B8B31E032
:101CF0003F1508F446C1D5012C90D6014D905D905A
:101D00006D907C90808091808114910451F5F80150
:101D100084818E11BDC08114910471F1E1102CC039
:101D20000E947A04AB01BC01441955096609770980
:101D3000C401B0E0A0E084179507A607B707E0F458
:101D400021101AC01092C202D5013C92B1E0FB12E0
:101D500013C080914301882309F43EC1F092000230
:101D60000BC00E947A0464197509860997096D33BE
:101D700071058105910558F6F3940D851E85AF8494
:101D8000B888C988DA88EB89FC892BE0F21294CFF5
:101D900046E0BE01695F7F4F82E50E94430D8823C4
:101DA00009F45DC08C85982F9095917099838695E4
:101DB000817091E089278A838F818F57990B2885BD
:101DC0002058330B41E02F3131050CF440E04B83B8
:101DD00041E08F3191050CF440E04C8341E0223E1C
:101DE0003F4F0CF040E04D8321E0823E9F4F0CF0CE
:101DF00020E02E83AE014F5F5F4FA1EFB1E080E0A6
:101E000032E0823008F035E0380FFA012191AF015D
:101E10009D91291779F094E0399FF0011124EB5E30
:101E2000FB4F9381222309F4D5C09F5F9383FD016B
:101E3000319720838F5F863019F781E08093F60217
:101E400082E5809318031092F7021092190360E064
:101E50008EE693E00E94C30681E00E947A056496B4
:101E60000FB6F894DEBF0FBECDBFDF91CF911F91AB
:101E70000F91FF90EF90DF90CF90BF90AF909F9029
:101E80008F907F906F905F904F903F902F9008952C
:101E9000E482E11060C00E947A04F60160837183DD
:101EA00082839383F1E0FF123DC08091B3028111E0
:101EB00039C090914001992329F08091F7018F5FFB
:101EC0008093F70180913C01882321F02091390112
:101ED000211106C09923D9F09091F7019630B8F0FE
:101EE000813009F06FC08093B402109243041092C5
:101EF00042042FEF30E030934504209344041092C5
:101F0000B4028093C2021092F701309233018091A3
:101F1000410181113092330180914301823011F4EB
:101F20003092000280913C01811108C080913901FA
:101F3000882321F0F1E0FF1609F44EC0D801139672
:101F4000EC91B4E0EB02F0011124EB5EFB4F8381D6
:101F50008F5F838311CFE3800E947A04F601608350
:101F6000718382839383F1E0FF1208C01092C20252
:101F700010920002F801F38210923301D5011C92F5
:101F800009C0F80184818E1509F4F6CEE482EE20B2
:101F900069F0E380B4E0EB9EF0011124EB5EFB4FAF
:101FA0008381882309F4E8CE8150D3CFF4E0FF1277
:101FB000B9CF80913D01882351F080910801809331
:101FC000F503B0CFE2E0D8011396EC939CCF80915B
:101FD0000901F5CF91502ACF82E0F82E0D851E859C
:101FE000AF84B888C988DA88EB89FC8965CEBC01E2
:101FF000990F880B990B97FF07C00E94220D6CE286
:102000008EE193E00C944F024AE00E94DE0CF7CF81
:10201000CF92DF92EF92FF92FB01E21BF30BDC0108
:10202000A41BB50B9D010E94BF326B017C019F0177
:10203000DF010E94BF326C0D7D1D8E1D9F1D0E9411
:10204000A42E0E9447320E949031CB01FF90EF9066
:10205000DF90CF90089585ED8093BC008091F202CF
:102060009091F302A091F402B091F5020796A11DA0
:10207000B11D23E0B695A795979587952A95D1F739
:102080002091BC0024FD03C01092F00208954091FD
:10209000F2025091F3026091F4027091F502452B27
:1020A000462B472B69F30097A105B10541F02AE2C1
:1020B0002A95F1F700C00197A109B109E1CF8091FC
:1020C000F1020C945905FF920F931F93CF93DF9366
:1020D000EC018B01FB01F0800E94C12FF81621F06A
:1020E0006F2DCE010E94C92FF801F1802196CE01FB
:1020F0000E94C12FF81621F06F2DCE010E94C92F2A
:10210000C801DF91CF911F910F91FF900895EF9239
:10211000FF920F931F93CF93DF9300D0CDB7DEB71D
:102120007B01082F10E0000F111FC8010E94C12F72
:102130008983C80101960E94C12F8A8389819A816F
:102140008F3F980709F07C01C7010F900F90DF9136
:10215000CF911F910F91FF90EF900895FF920F93F1
:102160001F93CF93DF93062F182F110F180FC82F2F
:10217000D0E0642F70E085E3810F0E948710F82E75
:10218000602F70E083E3810F0E948710FE01EE0F45
:10219000FF1FEE0FFF1FEB5EFB4FF0828183DF918D
:1021A000CF911F910F91FF900895CF92DF92EF9200
:1021B000FF920F931F93CF93DF938B01E901BA0135
:1021C000681B790B072E000C880B990B0E94A42E1C
:1021D0006B017C01BE01601B710B072E000C880B8C
:1021E000990B0E94A42EA7019601DF91CF911F9118
:1021F0000F91FF90EF90DF90CF900C94BA302F9218
:102200003F924F925F926F927F928F929F92AF9286
:10221000BF92CF92DF92EF92FF920F931F93CF93D3
:10222000DF9300D000D000D01F92CDB7DEB7E82FEB
:10223000082E000CFF0BDF01AA5BBE4F6D019C91C5
:102240009F3F09F0DDC0E62E062E000CFF08EBE0F4
:10225000EE9DD001EF9DB00D1124AA5ABB4F1996E7
:102260009C919F3F09F0CCC089016983382EA42E30
:10227000042E000CBB086E02D0011124AA5ABB4FD9
:102280004E02F0011124EA5AFB4F22813381408132
:10229000518112966D917C9113978D919C910E9422
:1022A000D51020EE3EE245E652E40E94032F2B01BA
:1022B0003C0120E030E0A9010E949D2E87FF0AC06A
:1022C00020E030E044EB53E4C301B2010E943B3014
:1022D0002B013C0120911A0330911B0340911C03F8
:1022E00050911D03C301B2010E943A300E94960C26
:1022F0000E949031CB010E94240CBC01990F880BE5
:10230000990B0E94A42E2B013C01F32D2AE5F20229
:10231000F0011124E957FF4FFF83EE832224239419
:10232000230C34E0330D3B832BE02A9DC0012B9D11
:10233000900D1124DC01A15ABB4FBD83AC83EE810B
:10234000FF81BF01FF0F880B990B0E94A42E0E94F2
:10235000960C4B015C01822D0E94C80C8A83C5013A
:10236000B4010E949031072E000C880B990B0E943B
:10237000A42E9B01AC01C301B2010E949D2E8111CC
:1023800036C0AC81BD818C918F3F39F0082E000C96
:10239000990BBA81B817190651F58BE08E9DF001A3
:1023A0008F9DF00D1124EA5AFB4F31862981F601E9
:1023B0002083D8018C918F5F8C9381E027960FB694
:1023C000F894DEBF0FBECDBFDF91CF911F910F916B
:1023D000FF90EF90DF90CF90BF90AF909F908F9045
:1023E0007F906F905F904F903F902F900895EE8177
:1023F000FF81BD96FF83EE832394FB812F129FCF35
:1024000080E0DCCF8F929F92AF92BF92CF92DF920B
:10241000EF92FF920F931F93CF93DF9300D0CDB72E
:10242000DEB781E08093010281E090E09A838983A6
:10243000BE016F5F7F4F80E190E00E94631060E01B
:1024400082E10E94420326EBE22E22E0F22E10E00F
:1024500070E060E0812F0E948710F70181939193D3
:102460007F011F5F1630A1F760E170E086E00E94F7
:1024700087106C0169E070E087E00E9487107C01A2
:10248000B601DD0C880B990B0E94A42E4B015C0158
:10249000B701FF0C880B990B0E94A42E9B01AC0185
:1024A000C501B4010E941E316B017C01C09227015D
:1024B000D0922801E0922901F0922A01609137011F
:1024C0007091380189E00E948710909338018093C1
:1024D0003701A701960160E070E080E89FE30E9469
:1024E000BA3020EE3EE245E652E40E94032F6B0133
:1024F0007C0120E030E0A9010E949D2E87FF0AC0E8
:1025000020E030E044EB53E4C701B6010E943B30C9
:102510006B017C01C092E401D092E501E092E601FA
:10252000F092E701C092DC01D092DD01E092DE0181
:10253000F092DF01A701960160E070E084EB93E484
:102540000E943A306093E8017093E9018093EA01B8
:102550009093EB01A701960160E070E084E393E4BF
:102560000E943A306093E0017093E1018093E201B0
:102570009093E30120E030E044E353E4C701B60167
:102580000E943B306093EC017093ED018093EE016B
:102590009093EF0161E470E082E20E9487108C0169
:1025A00063E270E081E20E9487105C0161E070E00C
:1025B00080E20E94871041E0892B09F440E094E614
:1025C000C92EE12C950160E18AE793E00E94C30BDC
:1025D00064E670E086E20E948710C82E62E370E035
:1025E00085E20E9487108C0166E970E084E20E9417
:1025F00087105C0161E070E083E20E94871041E097
:10260000892B09F440E0EE24E39495016BE08EE819
:1026100093E00E94C30B8BE3E82E81E0F82E1CE0D0
:10262000F70161917F0170E0812F0E948710F7010F
:10263000319780831F5F173199F760910A0170E02D
:102640008EE10E94871080930A0160910B0170E077
:102650008FE10E94871080930B0141E060E080E0F1
:102660000E94AE1040E061E081E00E94AE1040E0C8
:1026700062E082E00E94AE1040E064E083E00E94ED
:10268000AE1041E061EE84E00E94AE1041E062E2F3
:1026900085E00E94AE1041E06EE186E00E94AE103F
:1026A00041E062E587E00E94AE1041E06FE488E01F
:1026B0000E94AE1041E061E589E00E94AE1041E069
:1026C00060E58AE00E94AE1070E060E085E50E945F
:1026D0008710282F40E46FE270E08EED93E00E94B7
:1026E000840861E070E086E50E948710282F40E2B0
:1026F0006FE270E083EE93E00E94840862E070E095
:1027000087E50E948710282F48E063E270E088EE9A
:1027100093E00E94840863E070E088E50E948710DF
:10272000282F42E063E270E08DEE93E00E9484087F
:1027300064E070E089E50E948710282F40E16FE295
:1027400070E082EF93E00E94840865E070E08AE523
:102750000E948710282F41E06FE270E087EF93E03E
:102760000E94840866E070E08BE50E948710282FA5
:1027700042E06FE270E08CEF93E00E94840867E033
:1027800070E08CE50E948710282F40E466E270E03C
:1027900081E094E00E94840868E070E08DE50E948A
:1027A0008710282F40E46CE270E086E094E00E94FD
:1027B000840869E070E08EE50E948710282F40E1D0
:1027C00069E270E08BE094E00E9484086AE070E0C7
:1027D0008FE50E948710282F40E163E270E080E1DE
:1027E00094E00E94840864E670E08AE20E94871008
:1027F000C82E6CE370E089E20E9487108C0162E3CE
:1028000070E088E20E9487105C0161E070E087E27E
:102810000E94871041E0892B09F440E0EE24E39404
:10282000950166E082EA93E00E94C30B64E670E0E3
:102830008EE20E948710C82E6CE370E08DE20E9449
:1028400087108C0162E370E08CE20E9487105C01CB
:1028500061E070E08BE20E94871041E0892B09F46F
:1028600040E0EE24E394950169E086EB93E00E945A
:10287000C30B64E670E082E30E948710C82E6CE30D
:1028800070E081E30E9487108C0162E370E080E3D6
:102890000E9487105C0161E070E08FE20E94871067
:1028A00041E0892B09F440E0EE24E39495016AE0CD
:1028B0008AEC93E00E94C30B8091EB0380930801A4
:1028C0008091F5038093090110923C0210923B0223
:1028D0001092F702109219030E943B058AE696E0D7
:1028E00090935F0280935E028BE696E09093630282
:1028F000809362020E94390945E560EF82E50E94FB
:102900009B0840E06BEF82E50E949B0880E890E026
:10291000909343048093420490934504809344042D
:10292000909347048093460490934904809348040D
:1029300090934B0480934A0490934D0480934C04ED
:102940000E947B080F900F90DF91CF911F910F9104
:10295000FF90EF90DF90CF90BF90AF909F908F90BF
:102960000895CF92DF92EF92FF92CF93DF936B01A6
:102970007C01EA0120E030E044E353E40E942C3281
:10298000181654F420E030E044EB53E4C701B601DC
:102990000E943A306B017C0125E33AEF4EE85CE39C
:1029A000C701B6010E94032F0E9439326B017C01DE
:1029B000BE01DD0F880B990B0E94A42EA701960182
:1029C0000E94032FDF91CF91FF90EF90DF90CF9087
:1029D0000895CF92DF92EF92FF92CF93DF936B0136
:1029E0007C01EA0120E030E044E353E40E942C3211
:1029F000181654F420E030E044EB53E4C701B6016C
:102A00000E943A306B017C0125E33AEF4EE85CE32B
:102A1000C701B6010E94032F0E9419316B017C018E
:102A2000BE01DD0F880B990B0E94A42EA701960111
:102A30000E94032FDF91CF91FF90EF90DF90CF9016
:102A400008952F923F924F925F926F927F928F9252
:102A50009F92AF92BF92CF92DF92EF92FF920F932D
:102A60001F93CF93DF93CDB7DEB7C256D1090FB610
:102A7000F894DEBF0FBECDBF2DB73EB7A3963FAFD4
:102A80002EAFA39781E08093F60288E58093180328
:102A90001092F7021092190366E38EE693E00E940B
:102AA000C30681E00E947A0540E1BE016F5E7F4F60
:102AB00088E50E94430D882309F42FC680914A01BE
:102AC00090914B01A0914C01B0914D0189A39AA323
:102AD000ABA3BCA344E050E06FEF7FEF86E491E04E
:102AE0000E94D7321DA24091B6025091B70226EF44
:102AF0002403B001259F700D11247FAB6EAB409174
:102B0000B8025091B9022403C001259F900D1124F1
:102B10009FAF8EAF20911A0330911B0340911C038D
:102B200050911D032AAB3BAB4CAB5DAB50582AA771
:102B30003BA74CA75DA7AE014F5E5F4F3A0166E52C
:102B400074E07FA36EA38B01212C312CD30113964B
:102B50004C911397842F90E09C0154E0220F331F77
:102B60005A95E1F72227337011966C91620F732FFB
:102B7000711DBAE0B69F9001B79F300D1124880FE8
:102B8000991F880F991F88279370F3016281680F3E
:102B9000792F711DB69FC001B79F900D11244F7002
:102BA000263FF7E23F0729F4863F57E2950709F4ED
:102BB000D7C56EA97FA9260F371FAEADBFAD8A0F4F
:102BC0009B1FF80160817181D901A61BB70BBD0164
:102BD000B7FF03C0719561957109653F71407CF441
:102BE000F80162817381DC01A61BB70BBD01B7FF41
:102BF00003C0719561957109653F714024F05FEFE5
:102C0000F80151871286D80111963C932E931396A2
:102C10009C938E931297263F374251F4863F9742FA
:102C200039F4EFEFD8011996EC9319971A961C9284
:102C3000D80118964C9318974D905C90B20174513E
:102C4000072E000C880B990B0E94A42E6EA77FA75D
:102C500088AB99AB20E030E044E353EC6AA97BA950
:102C60008CA99DA90E949D2E87FFA3C020E030E083
:102C700044EB53E46AA57BA58CA59DA50E943A3040
:102C8000F62FE72FDC0125E33AEF4EE85CE36F2FE8
:102C90007E2FCD010E94032F4B015C010E94193150
:102CA0006B017C01F8010280F381E02DF9AFE8AF00
:102CB000BF017F50072E000C880B990B0E94A42E99
:102CC0006AAF7BAF8CAF9DAFC501B4010E943932B2
:102CD0004B015C01A70196016EA57FA588A999A962
:102CE0000E94032F24966CAF7DAF8EAF9FAF2497C9
:102CF000A50194016AAD7BAD8CAD9DAD0E94032F03
:102D00009B01AC0124966CAD7DAD8EAD9FAD24973B
:102D10000E943A3020E030E040EA55E40E943B3027
:102D20000E949031D80115967C936E931497A5015B
:102D300094016EA57FA588A999A90E94032F4B0134
:102D40005C012AAD3BAD4CAD5DADC701B6010E9443
:102D5000032F9B01AC01C501B4010E943B3020E070
:102D600030E040E755E40E943B300E949031F8018A
:102D700077836683B6E5EB2EB4E0FB2ED12C20E002
:102D8000D314E1F0211124C0D70112962D913C916A
:102D900013974D915C9168AD79ADC2010E94081006
:102DA000D394BBE0EB0EF11C21E0883E934044F34A
:102DB000E6CFFAA5EBA5ACA5BDA565CF211108C04E
:102DC000E1E2F0E0EC0FFD1FE20DF11D30822394F3
:102DD0003394F3E06F0E711C055F1F4F24E0321235
:102DE000B5CE81E0211080E080933A019DA1E6E517
:102DF000F4E080E02FEFA185AF3F71F0328532150E
:102E000020F432E0321508F4C6C49F5F0A2E000C8D
:102E1000BB0BAA5BBE4F8C938F5F3B96843059F7F8
:102E20009DA341E0421508F089C06DB77EB77BAB2A
:102E30006AAB022D10E0580171E0A71AB1088DB7F6
:102E40009EB7801B910B0FB6F8949EBF0FBE8DBF2F
:102E5000ADB7BEB711967D01EDB7FEB7E01BF10B24
:102E60000FB6F894FEBF0FBEEDBF2DB73EB72F5F74
:102E70003F4F6901A801BE016F5D7F4FCD010E94E8
:102E8000CE32A801BE016F5D7F4FC6010E94CE32D7
:102E900042E0622DC7010E94EA0B43E0622DC601A9
:102EA0000E94EA0B34E0231279C42DA2D7014C9181
:102EB0002BE04203F0011124EA5AFB4F82E08187A4
:102EC0004093480113963C913203F0011124EA5AD1
:102ED000FB4F118630934601F6018381481719F0A4
:102EE000E3E0381301C0E2E0EC0DFD2DF11D80811F
:102EF0002BE08202F0011124EA5AFB4F91E0918706
:102F000080934701D6019C9181E0491711F0391354
:102F100080E0C80ED11CF60180812BE08202F00116
:102F20001124EA5AFB4F93E09187809349014AA903
:102F30005BA90FB6F8945EBF0FBE4DBF1DA182E81E
:102F400094E0AEA1BFA11A962C911A97211738F4DC
:102F500019962C9119972F3F11F01A961C93EEA1F8
:102F6000FFA13B96FFA3EEA38E179F0751F7111108
:102F700003C021100C947422F0914801FEABFF3F76
:102F800009F422C5E0914601EF3F09F41DC58BE02D
:102F9000F802D0011124AA5ABB4FE802F001112413
:102FA000EA5AFB4F228133814081518112966D9103
:102FB0007C9113978D919C910E94D51020EE3EE25A
:102FC00045E652E40E94032F6EA37FA388A799A72A
:102FD00020E030E0A9010E949D2E87FF0EC020E076
:102FE00030E044EB53E46EA17FA188A599A50E942F
:102FF0003B306EA37FA388A799A7209149012EAFEC
:103000002F3F09F4E6C4A0914701AF3F09F4E1C4A2
:103010008BE02802F0011124EA5AFB4FA802D001EC
:103020001124AA5ABB4F12962D913C9113974D91A2
:103030005C9162817381808191810E94D51020EE24
:103040003EE245E652E40E94032F6AAF7BAF8CAFAD
:103050009DAF20E030E0A9010E949D2E87FF0EC0A9
:1030600020E030E044EB53E46AAD7BAD8CAD9DAD28
:103070000E943B306AAF7BAF8CAF9DAF30911A039B
:103080003AA740911B034EA750911C035AAB609185
:103090001D0368AF113009F0C0C4E6E4F1E090E030
:1030A00080E0382E01910F3F09F4B1C47BE00702A4
:1030B000800111240A5A1B4FD801ED90FC90880F13
:1030C000991FFC01E55DFE4FC080D180A6016AA575
:1030D0007EA58AA998AD0E94B11440900401509039
:1030E00005016090060170900701A30192010E9402
:1030F000032F4B015C01A6016AA57EA58AA998ADA4
:103100000E94E9149B01AC01C301B2010E94032F8C
:103110002B013C01232D2D7FB701FF0C880B990B50
:1031200021115CC40E94A42EA30192010E943B3095
:103130000E9490317093830460938204F80162814D
:103140007381072E000C880B990B0E94A42EA501F9
:1031500094010E943B300E949031709385046093EB
:1031600084042091000130910101409102015091AD
:1031700003012AAF3BAF4CAF5DAF8AA59EA5AAA9BC
:10318000B8AD8EA39FA3A8A7B9A76EA17FA188A55C
:1031900099A50E9490318B01653B710514F008568A
:1031A00011406AA57EA58AA998AD0E9490319B0125
:1031B000653B710514F028563140021B130B0D5E60
:1031C0001F4F0732110560F020E030E0A9016AA529
:1031D0007EA58AA998AD0E949D2E81110C9474221F
:1031E00020E030E044EB52E46AA57EA58AA998ADC0
:1031F0000E942C32181674F420E030E047E853E4C3
:103200006AA57EA58AA998AD0E949D2E87FF02C05F
:103210000C9474222EA13FA148A559A520931A030E
:1032200030931B0340931C0350931D034AAD5BADC9
:103230006CAD7DAD4093000150930101609302019C
:1032400070930301609182047091830479AF68AF39
:1032500080918404909185049BAF8AAF072E000C67
:10326000880B990B0E94A42E20E030E040EA55E440
:103270000E943A309B01AC0150582AA73BA74CA7AB
:103280005DA7CEA0DFA0E8A4F9A4F7FAF094F7F8C0
:10329000F09420E030E044E353EC6EA17FA188A5D8
:1032A00099A50E949D2E87FF0AC020E030E044EBE4
:1032B00053E4C701B6010E943A306B017C0125E35B
:1032C0003AEF4EE85CE3C701B6010E94032F2B01E1
:1032D0003C010E9419314B015C014AAD5BADBA0162
:1032E000550F880B990B0E94A42E20E030E040E798
:1032F00055E40E943A306B017C01C301B2010E9487
:1033000039326EA37FA388A799A7A50194016AA566
:103310007BA58CA59DA50E94032F2B013C012EA10E
:103320003FA148A559A5C701B6010E94032F9B01E3
:10333000AC01C301B2010E943B3020E030E040EA22
:1033400055E40E943B30562E472E382E292EC701B9
:10335000B6019058A50194010E94032F6B017C01D6
:103360002EA13FA148A559A56AA57BA58CA59DA521
:103370000E94032F9B01AC01C701B6010E943B30A4
:1033800020E030E040E755E40E943B306EA37AA78E
:103390003C016091040170910501809106019091BA
:1033A000070124966CAF7DAF8EAF9FAF24979BE251
:1033B000E92E91E0F92ECE0101966C01A6E4B1E070
:1033C000BFAFAEAFEAEBF2E0FFABEEABD7010D91D2
:1033D0001D917D0117FF02C00C94FF21B1E0BAAB33
:1033E000AEADBFADED91BFAFAEAFEEA7AEA9BFA979
:1033F0006D917D91BFABAEAB072E000C880B990B86
:103400000E94A42E20E030E04AE754E40E941E31DE
:103410009B01AC0160E070E080E89FE30E943A30DD
:103420004B015C01BEA5BF3F09F4EDC72BE0B20222
:10343000F0011124EA5AFB4F628173812AAD3BAD42
:1034400048AD59AD808191810E9408102AA9AC0134
:103450002403B001259F700D1124072E000C880B4A
:10346000990B0E94A42EA50194010E94032FD6015E
:103470006D937D938D939C931397F4E0CF0ED11CA5
:1034800023E331E02E153F0509F0A0CF80913E01E6
:10349000882309F448C06091450170E090E080E025
:1034A0000E94A22E20E030E048EC52E40E941E313F
:1034B0004B015C01C0902701D0902801E0902901C8
:1034C000F0902A01AC019B01C701B6010E949D2E1C
:1034D000882349F1A5019401C701B6010E942C324D
:1034E00018160CF0A8C7A7019601C501B4010E94E7
:1034F0001E316B017C01AC019B0169857A858B854E
:103500009C850E94032F69877A878B879C87A701F8
:10351000960169817A818B819C810E94032F698346
:103520007A838B839C8320E030E040EA55E4652D6C
:10353000742D832D922D0E949D2E87FFA5C729856E
:103540003A854B855C85652D742D832D922D0E94C7
:103550003A3024E02093F0015AAE4EAAC32CD22C6C
:10356000562E472E382E292E4FEF5FE15BAB4AAB2C
:103570006FEF7FE37FA76EA71091F00120E030E0AE
:1035800040E755E46EA17AA5C3010E949D2E87FFF6
:1035900092C72D853E854F8558896EA17AA5C301B6
:1035A0000E943A3018601093F001EEA0FAA46EAEBB
:1035B00021967FAE21976EA37AA73C01AFEFBFE1C2
:1035C000B9AFA8AF10E000E0652D742D832D922DCA
:1035D0000E9490314B0160E074E168197909072E6F
:1035E000000C880B990B0E94A42E1B012C016AADC4
:1035F0007EA9C6010E94903168197909072E000C36
:10360000880B990B0E94A42E9B01AC01C201B10151
:103610000E941E314B015C016AA97BA92EA53FA522
:10362000621B730B072E000C880B990B0E94A42EB3
:103630009B01AC01C501B4010E94032F4B015C0149
:103640004EA55FA5BA01550F880B990B0E94A42EB9
:103650009B01AC01C501B4010E943B3020E030E089
:1036600040E05FE30E943B300E9490317093C602BD
:103670006093C5026EA17AA5C3010E9490314B01EF
:1036800060E07FE068197909072E000C880B990B20
:103690000E94A42E2B013C01B7018EAD21969FAD57
:1036A00021970E94903168197909072E000C880B28
:1036B000990B0E94A42E9B01AC01C301B2010E9490
:1036C0001E316B017C0168AD79AD601B710B072E5B
:1036D000000C880B990B0E94A42E9B01AC01C70122
:1036E000B6010E94032F6B017C01B801110F880BFA
:1036F000990B0E94A42E9B01AC01C701B6010E9448
:103700003B3020E030E040E05FE30E943B300E942D
:1037100090317093C4026093C302A3968EAD9FADA7
:10372000A3970FB6F8949EBF0FBE8DBFCE59DF4F43
:103730000FB6F894DEBF0FBECDBFDF91CF911F91C2
:103740000F91FF90EF90DF90CF90BF90AF909F9040
:103750008F907F906F905F904F903F902F90089543
:10376000D80111969C938E9313969C938E931297E7
:10377000EFEF1996EC9319971A961C921A971896D0
:103780001C92189715969C938E93149717969C935A
:103790008E9316971DCB218712863ECB8DA132E0EA
:1037A000231235C08130B9F502501109D601A00F9E
:1037B000B11FF601EA0DFB1D9E012B5D3F4F4C91A1
:1037C000608181E00E94FF109E012B5D3F4FD6017A
:1037D00011964C9111976C9183E00E94FF109E010D
:1037E0002B5D3F4FF7014181608182E00E94FF1015
:1037F0000E0D1F1DEA0CFB1C9E012B5D3F4FD801D7
:103800004C91F701608180E00E94FF1090CB8215FF
:1038100008F08DCBC9CF81118ACBD70111960C91BD
:103820001197E02F002E000CFF0BFBA7EAA71C91BD
:10383000212F012E000C330B3FA72EA7EBE01E0219
:10384000D0011124AA5ABB4FED90FC90119712960B
:10385000CD90DC900E02F0011124EA5AFB4FA080BB
:10386000B180828093809401A501B601C7010E94B6
:10387000D51020EE3EE245E652E40E94032F2B01D4
:103880003C0120E030E0A9010E949D2E87FF0AC084
:1038900020E030E044EB53E4C301B2010E943B302E
:1038A0002B013C0120911A0330911B0340911C0312
:1038B00050911D03C301B2010E943A300E94960C40
:1038C0000E949031CB010E94240C8D32910509F0A9
:1038D00031C620E03EE150E040E0B601C7010E9461
:1038E00008102C0120E03EE150E040E0B401C501A9
:1038F0000E9408103C0130E020E040E058E2B601B0
:10390000C7010E9408107C0130E020E040E058E24E
:10391000B401C5010E9408106C01B090F001640C64
:10392000751CB301770C880B990B0E94A42E2B01F8
:103930003C01EC0CFD1CB701FF0C880B990B0E949D
:10394000A42E9B01AC01C301B2010E942C321816B7
:1039500064F58B2D8970893061F530E0A3E02BE0B0
:103960006EA57FA5269FC001279F900D11248A5A1E
:103970009B4FFC01A1870A2E000CBB0BAA5BBE4F1C
:103980001C934AA55BA5249FD001259FB00D11244F
:10399000AA5ABB4F19963C93E32F330FFF0BEA5BF8
:1039A000FE4F008382E08DA3C2CA8B2D86708630C5
:1039B000A1F631E0A2E0D3CF8B2D8370833009F0E4
:1039C00004C630E0A1E0CBCF1EA21FA218A619A604
:1039D00014CB1AAE1BAE1CAE1DAE50CB0E94A42E53
:1039E000A50194010E943A300E94903170938304A3
:1039F00060938204D80112966D917C91072E000C81
:103A0000880B990B0E94A42EA3019201A2CB0196D0
:103A10008430910509F045CBA4CB143009F0F1C2F4
:103A200080E090E0A0E8BFE380930401909305015B
:103A3000A0930601B09307013091470121963FAF53
:103A400021975BE0B52E4B2D3403800111240A5AD7
:103A50001B4FD80112966D917C91072E000C880B9C
:103A6000990B0E94A42E28966CAF7DAF8EAF9FAFAE
:103A70002897F80160817181072E000C880B990B43
:103A80000E94A42E2B013C012B2D3EAD3203800160
:103A900011240A5A1B4FD80112966D917C91072E62
:103AA000000C880B990B0E94A42E2C966CAF7DAF56
:103AB0008EAF9FAF2C97F80160817181072E000CAB
:103AC000880B990B0E94A42E60966CAF7DAF8EAFD1
:103AD0009FAF6097F09146016596FFAF65972B2DDC
:103AE0003F2F3203800111240A5A1B4FD80112962E
:103AF0006D917C91072E000C880B990B0E94A42ECF
:103B000069966CAF7DAF8EAF9FAF6997F80160810A
:103B10007181072E000C880B990B0E94A42E6B015B
:103B20007C012B2D3EA93203800111240A5A1B4F20
:103B3000D80112966D917C91072E000C880B990B81
:103B40000E94A42E6D966CAF7DAF8EAF9FAF6D9728
:103B5000F80160817181072E000C880B990B0E947F
:103B6000A42E4B015C016D962CAD3DAD4EAD5FAD0D
:103B70006D97C701B6010E94032F64966CAF7DAFAD
:103B80008EAF9FAF6497A501940169966CAD7DAD32
:103B90008EAD9FAD69970E94032F9B01AC01649687
:103BA0006CAD7DAD8EAD9FAD64970E943A3064964A
:103BB0006CAF7DAF8EAF9FAF649760962CAD3DAD7F
:103BC0004EAD5FAD6097C301B2010E943A30A1963D
:103BD0006CAF7DAF8EAF9FAFA1972C962CAD3DAD56
:103BE0004EAD5FAD2C97C301B2010E94032F2B0194
:103BF0003C0160962CAD3DAD4EAD5FAD6097289613
:103C00006CAD7DAD8EAD9FAD28970E94032F9B01BB
:103C1000AC01C301B2010E943A302B013C01A50165
:103C20009401C701B6010E943A304B015C012C9609
:103C30002CAD3DAD4EAD5FAD2C9728966CAD7DADF6
:103C40008EAD9FAD28970E943A3028966CAF7DAF1D
:103C50008EAF9FAF28976D962CAD3DAD4EAD5FAD4D
:103C60006D9769966CAD7DAD8EAD9FAD69970E94E5
:103C70003A302C966CAF7DAF8EAF9FAF2C972896C5
:103C80002CAD3DAD4EAD5FAD2897C501B4010E948E
:103C9000032F6B017C012C962CAD3DAD4EAD5FAD7D
:103CA0002C97A1966CAD7DAD8EAD9FADA1970E9476
:103CB000032F9B01AC01C701B6010E943A306B0192
:103CC0007C01A1962CAD3DAD4EAD5FADA197649644
:103CD0006CAD7DAD8EAD9FAD64970E94032F609655
:103CE0006CAF7DAF8EAF9FAF6097A5019401C3010C
:103CF000B2010E94032F9B01AC0160966CAD7DADBB
:103D00008EAD9FAD60970E943A30A70196010E9448
:103D10001E310E9490311B017093830460938204D2
:103D200028962CAD3DAD4EAD5FAD289764966CAD39
:103D30007DAD8EAD9FAD64970E94032F4B015C015A
:103D40002C962CAD3DAD4EAD5FAD2C97C301B201AD
:103D50000E94032F9B01AC01C501B4010E943A30BF
:103D6000A70196010E941E310E9490313B01709381
:103D700085046093840466E4862E61E0962E7FE1DC
:103D8000472E71E0572EEBE2AE2EE1E0BE2EE12C85
:103D9000FBE0FF2ED401ED914D01BF2DEB02F001B0
:103DA0001124EA5AFB4FC080D18002811381930114
:103DB000A101B801C6010E940810E1E0EE1508F06B
:103DC00019C1D5018D939C93E3948E2D0E94C80C4C
:103DD000E82F880FFF0BEA5BFE4FE0812F2DE202F8
:103DE000F0011124EA5AFB4F228133814081518135
:103DF000B801C6010E940810D2018D939D932D0138
:103E0000B2E0AB0EB11CE4E0EE12C4CF65962FAD6C
:103E100065973F2D2302F0011124EA5AFB4F2080C1
:103E200031804280538021964FAD21974302F001AB
:103E30001124EA5AFB4FA080B180028113819801BE
:103E4000A501B201C1010E94D51020EE3EE245E677
:103E500052E40E94032F6B017C0120E030E0A901B5
:103E60000E949D2E87FF0AC020E030E044EB53E41F
:103E7000C701B6010E943B306B017C012EA13FA11E
:103E800048A559A5C701B6010E943A300E94960C78
:103E90006093E0017093E1018093E2019093E3016C
:103EA0005EA96BE05602F0011124EA5AFB4F6080D4
:103EB0007180C280D3809801A501B601C3010E9420
:103EC000D51020EE3EE245E652E40E94032F4B015E
:103ED0005C0120E030E0A9010E949D2E87FF0AC00E
:103EE00020E030E044EB53E4C501B4010E943B30D4
:103EF0004B015C012EA13FA148A559A5C501B40104
:103F00000E943A300E94960C6093E4017093E501A0
:103F10008093E6019093E7017EAD8BE07802F0019B
:103F20001124EA5AFB4F00811181E280F38097014E
:103F3000A801B601C3010E94D51020EE3EE245E67D
:103F400052E40E94032F4B015C0120E030E0A90104
:103F50000E949D2E87FF0AC020E030E044EB53E42E
:103F6000C501B4010E943B304B015C012EA13FA171
:103F700048A559A5C501B4010E943A300E94960C8B
:103F80006093E8017093E9018093EA019093EB015B
:103F90009701A801B201C1010E94D51020EE3EE2B6
:103FA00045E652E40E94032F6B017C0120E030E0E3
:103FB000A9010E949D2E87FF0AC020E030E044EB5B
:103FC00053E4C701B6010E943B306B017C012EA176
:103FD0003FA148A559A5C701B6010E943A300E94E9
:103FE000960C6093EC017093ED018093EE01909339
:103FF000EF01CBC8919581959109F501918380835B
:10400000E3CE9EA99F3F19F1809146018F3FF9F0C1
:104010002AA53EA54AA958AD6EA17FA188A599A55C
:104020000E943A302091000130910101409102013B
:10403000509103010E943B300E94960C6AAF7BAF07
:104040008CAF9DAF90E082E0AFEFAEAB27C0809128
:1040500047018F3F09F4BBC2BEADBF3F09F409C1A0
:104060002091000130910101409102015091030122
:104070006AAD7BAD8CAD9DAD0E943A302AA53EA5C0
:104080004AA958AD0E943B300E94960C6EA37FA3B4
:1040900088A799A791E083E0EFEFEEABE92F990FA6
:1040A000FF0B2296FFAFEEAF2297EA5BFE4FE08157
:1040B0002E2F0E2E000C330B2A963FAF2EAF2A97D1
:1040C000A82E880FBB08D501AA5BBE4FAC914A2F22
:1040D0000A2E000C550B26965FAF4EAF26978BE04D
:1040E000A802D0011124AA5ABB4F0D911C9111971F
:1040F00012964D905C90E802F0011124EA5AFB4FB1
:10410000608171817FAF6EAF628073809301AB017C
:10411000B201C8010E940810BC01990F880B990BCD
:104120000E94A42E6B017C01F501EE0FFF1FE55DDF
:10413000FE4F208031804801012E000CAA08BB08E8
:104140007EA97F3F09F0ABC037FE03C031942194B4
:1041500031082296EEADFFAD2297EE0FFF1FE55D11
:10416000FE4F6081718177FF03C071956195710980
:10417000620D731D072E000C880B990B0E94A42E54
:104180002B013C01AC019B01C701B6010E941E310D
:1041900060930401709305018093060190930701D9
:1041A000B101330C880B990B0E94A42EA30192013C
:1041B0000E941E316B017C016EAD7FAD601B710BE7
:1041C000072E000C880B990B0E94A42EA7019601C4
:1041D0000E94032F2B013C01C501B4010E94A42EB3
:1041E0009B01AC01C301B2010E943B300E9490319F
:1041F00070938304609382048BE026964EAD5FAD8E
:104200002697849FF001859FF00D1124EA5AFB4FF9
:10421000028113812A966EAD7FAD2A97869FF001A9
:10422000879FF00D1124EA5AFB4F62817381601B56
:10423000710B072E000C880B990B0E94A42EA7016E
:1042400096010E94032F6B017C01B801110F880BAE
:10425000990B0E94A42E9B01AC01C701B6010E94DC
:104260003B300E94903170938504609384040C94D9
:10427000C518FEA9FF3F09F0B7C1909146019F3FC5
:1042800011F40C94C5188F3F09F0B3C13EAD93E013
:1042900080E0A3E03F3F09F0D8CE0C94C51893010D
:1042A0004EAD5FADB201C8010E94D51020EE3EE2D6
:1042B00045E652E40E94032F2B013C0120E030E050
:1042C000A9010E949D2E87FF0AC020E030E044EB48
:1042D00053E4C301B2010E943B302B013C017EA993
:1042E000072F770F110BF801EE0FFF1FEE0FFF1FC7
:1042F000E052FE4F2081318142815381C301B201DE
:104300000E943A300E94960C6EA37FA388A799A7BB
:104310002AA53EA54AA958AD0E943A302091000135
:104320003091010140910201509103010E943B3004
:104330000E94960C6AAF7BAF8CAF9DAF000F111F30
:10434000F801E15EFE4F60817181072E000C880B41
:10435000990B0E94A42E9B01AC01C701B6010E94DB
:104360001E316B017C01C0920401D0920501E092E4
:104370000601F0920701B101330C880B990B0E94E2
:10438000A42EA70196010E94032F0E9490316B0179
:10439000AB016AA57EA58AA998AD0E94E9142B01FC
:1043A0003C01C501B4010E94A42EA30192010E9408
:1043B0003B300E9490317093830460938204A60185
:1043C0006AA57EA58AA998AD0E94B1146B017C01F3
:1043D0008BE02696AEADBFAD26978A9FF0018B9FEE
:1043E000F00D1124EA5AFB4F62817381072E000CF5
:1043F000880B990B0E94A42EA701960130CFEFEFF6
:10440000EAAB0C94F019B801110F880B990B0E94BC
:10441000A42E24962CAD3DAD4EAD5FAD24970E94E9
:10442000032FA50194010E94032FF601608371837D
:104430008283938322C8A5019401C701B6010E941B
:104440009D2E87FF70C8A5019401C701B6010E9487
:104450001E316B017C01AC019B016D857E858F85D2
:1044600098890E94032F6D877E878F87988BA7017D
:1044700096016D817E818F8198850E94032F6D83C7
:104480007E838F8398874FC829813A814B815C81D5
:10449000652D742D832D922D0E943A306AAF7EAB2C
:1044A0006C0181E08093F0011BAA1AAA8FEF9FE1B3
:1044B0009FA78EA761C82D813E814F8158856EA12F
:1044C0007AA5C3010E943A307B018EAF21969FAF3F
:1044D0002197812F82608093F001EFEFFFE3F9AF26
:1044E000E8AF0FEF1FE170C88FEF80935F04109269
:1044F000600480936A0410926B0480937504109298
:104500007604809380041092810410921A03109212
:104510001B0310921C0310921D0380E090E0A4EB9B
:10452000B2E48093000190930101A0930201B09343
:104530000301F3C88B33914011F00C94971720E0DE
:104540003EE140E058E2B601C7010E9408102C018C
:1045500020E03EE140E058E2B401C5010E940810AD
:104560003C0130E020E050E040E0B601C7010E948D
:1045700008107C0130E020E050E040E0B401C501CB
:104580000E9408106C01B090F001640C751CB3011E
:10459000770C880B990B0E94A42E2B013C01EC0C8C
:1045A000FD1CB701FF0C880B990B0E94A42E9B01E8
:1045B000AC01C301B2010E942C3218160CF0FCC9E8
:1045C0008B2D8C708C3009F0FCC933E0F3C95EA9E7
:1045D0005F3F09F452CE2EAD2F3F09F44ECE93E04B
:1045E00082E072E07EAB5ACD91E082E061E06EAB9A
:1045F00055CD91E080E01EAA51CD2F923F924F926F
:104600005F926F927F928F929F92AF92BF92CF9262
:10461000DF92EF92FF920F931F93CF93DF93CDB76B
:10462000DEB76A970FB6F894DEBF0FBECDBF282E57
:104630004FEF60E08AE793E00E946D094FEF60E082
:104640008EE893E00E946D0981E08093B4028FE7C9
:1046500090E09093430480934204909345048093A8
:1046600044041092B4028CE0E6EBF2E0DE01119615
:1046700001900D928A95E1F71092B7021092B6025E
:104680001092B9021092B8021092BB021092BA02B4
:104690001092BD021092BC021092BF021092BE0294
:1046A0001092C1021092C0026E018DE0C80ED11CA2
:1046B00088E0F60111928A95E9F71DE3E091E103A4
:1046C00084E0E802F0011124EB5EFB4F838181114D
:1046D0000BC0E091E60394E0E902F0011124EB5EE7
:1046E000FB4F8381882359F0115049F00E94330E0B
:1046F0006CE370E080E090E00E949803DFCF81E0FF
:104700008093E60330903C015090400110923E01AE
:1047100010923C0110924001211093C0E6E0EA8F14
:1047200010E08FEF888F9FE1998FEFEFEF8B0FE114
:104730000E945C0B0E94330E0E94211590911C0474
:1047400080911B04992309F44BC181115AC01111A6
:1047500086C0E6E4F1E091919F3F09F481E091E0A9
:10476000EA34F907C1F781116FC06091820470913A
:104770008304072E000C880B990B0E94A42E20E0C6
:1047800030E040E251E40E941E3120E030EC4FEF77
:1047900053E40E943A300E9490317093B7026093C4
:1047A000B6026091840470918504072E000C880B7A
:1047B000990B0E94A42E20E030E040E251E40E94D8
:1047C0001E3120E030EC4FEB53E40E943A300E945F
:1047D00090317093B9026093B80280E00E94030B9D
:1047E0004FEF60E08EE893E00E94630A12E0EFEF83
:1047F000E88FFFE1F98F89E98F8B09E3E1E0E0932E
:104800001B0480911804811106C0222009F41DC1E7
:10481000123009F01AC1E12FF0E0EE0FFF1FA1E006
:10482000B0E0AC0FBD1FAE0FBF1FEA54FD4F812F8C
:10483000863009F4E1C02D913D91219331938F5F32
:10484000F7CFF2E0FA8F6CCF62E081E00E94080BB4
:104850004FEF62E08EE893E00E94630ACFCF8DEFC6
:10486000810F0E94C80CE82F880FFF0BEA5BFE4FF8
:1048700080818F3F09F48CC06EEF462E410E842D4F
:104880000E94C80CE82F880FFF0BEA5BFE4F808167
:104890008F3F09F47DC08FEF810F0E94C80CE82F75
:1048A000880FFF0BEA5BFE4F80818F3F09F470C0D9
:1048B00080908204909083046090840470908504BA
:1048C0009301A40160E07FE080E094E10E94081081
:1048D0005C01E42C042C000CFF08F701EA5BFE4F9E
:1048E000E0819BE0E902F0011124EA5AFB4F62816A
:1048F00073819301A401808191810E9408103C0181
:10490000EE0CFF1CE1E0F0E0EC0FFD1FEE0EFF1ED1
:10491000B501BB0C880B990B0E94A42E2DEC3CEC2E
:104920004CE45FE30E941E314B015C01B301770C44
:10493000880B990B0E94A42E9B01AC01C501B40108
:104940000E941E319B01AC0160E070E080E89FE3B3
:104950000E943A3020E030E04AE754E40E94032FFE
:104960000E949031F70175876487442011F1F1E0CE
:104970004F1639F182E0481661F180E00E94030B86
:104980004FEF60E08EE893E00E94630A1F5F0AC069
:1049900062E081E00E94080B4FEF62E08EE893E056
:1049A0000E94630A68EC70E080E090E00E94980347
:1049B00025CF96E6988FE6E0E98FFFEFFF8B0FE1BA
:1049C000DCCF8FEF888F9FE1998FE6E6EF8B06E0D3
:1049D000D4CFF9E9F88F89E3898F9FEF9F8BEFCFD1
:1049E000882309F40ECF10921B0468EC70E080E07D
:1049F00090E00E94980305CF81E080931704211076
:104A000058C086EBA82E82E0B82E760100E0101781
:104A1000F1F1023038F0F701349780819181F5018E
:104A200091838083F501819191915F019E8B8D8BA4
:104A3000BE016B5E7F4FC7018C199D090E946310F8
:104A40000F5FF2E0EF0EF11CE2CFF1E0F093B40261
:104A50008F89902F26E0959587952A95E1F79927DC
:104A60009093430480934204888D998D36E0959508
:104A700087953A95E1F799279093450480934404EC
:104A80001092B4028A8D181708F452CEB8CF309223
:104A90003C0181E0511001C080E08093400163E05F
:104AA00084E00E94080B4FEF63E08EE893E00E94E1
:104AB000630A6A960FB6F894DEBF0FBECDBFDF91D2
:104AC000CF911F910F91FF90EF90DF90CF90BF900B
:104AD000AF909F908F907F906F905F904F903F909E
:104AE0002F9008951F920F920FB60F9211248F935B
:104AF0009F938091E1009091E100937F9093E1007A
:104B000083FF0FC01092E90091E09093EB001092A8
:104B1000EC0092E39093ED001092C90298E090931C
:104B2000F00082FF22C093E09093E9009091F200A0
:104B3000992319F09AE39093E80090919F029923AA
:104B400041F090919F02915090939F02911101C06A
:104B50005D989091C802992341F09091C8029150BC
:104B60009093C802911101C0289884FF18C08091C9
:104B7000E2008E7E81608093E2008091E1008F7E72
:104B80008093E1008091A0028E7E80618093A002DC
:104B90009F918F910F900FBE0F901F90189580FFDF
:104BA000F7CF8091E2008E7E80618093E200809159
:104BB000E1008E7E8093E1008091A0028E7E816074
:104BC000E5CF1F920F920FB60F921124CF92DF9272
:104BD000EF92FF920F931F932F933F934F935F9307
:104BE0006F937F938F939F93AF93BF93EF93FF93B5
:104BF000CF93DF93CDB7DEB76C97DEBFCDBF1092FA
:104C0000E9008091E80083FF25C068E0CE01459669
:104C10000E94FD0182EF8093E8008D8987FF39C0F3
:104C20009091E80090FFFCCF982F907609F034C166
:104C30009E894F89588D2F89F88C911131C0803809
:104C400061F58091A1028093F1001092F1008EEF46
:104C50008093E8006C960FB6F894DEBF0FBECDBF10
:104C6000DF91CF91FF91EF91BF91AF919F918F9184
:104C70007F916F915F914F913F912F911F910F9174
:104C8000FF90EF90DF90CF900F900FBE0F901F908E
:104C900018959EEF9093E800C7CF1092F100D5CF02
:104CA000913059F48111D3CF4130510581F6809173
:104CB000A1028D7F8093A102CACF933049F4811164
:104CC000C6CF4130510519F68091A1028260F2CF22
:104CD000953041F48091E80080FFFCCF206820935C
:104CE000E300B5CF963009F0A9C00B8D1C8D22E0F2
:104CF0001092E90010929D0210929C02F2122EC0B6
:104D000010929B0210929A020E941E021F8299E04A
:104D10009983FA8291E09E8390EA98879AEF998727
:104D200020919C0230919D02275F3F4F3C832B8353
:104D30008D831092E90010929D0210929C021093B4
:104D40009B0200939A0249E050E0BE016F5F7F4FE3
:104D500080E00E94C6010E941E0279CF10939B0240
:104D600000939A020E940A02DC0112960D911C9196
:104D70000115110509F451C1D801ED91FC91048090
:104D8000F581E02DBE016B5E7F4FC801099500974C
:104D900009F03EC1F80100851185EACFF3E0FF126A
:104DA0000EC08F89882309F440C0823061F440E846
:104DB00069E081EE91E00E949301811148CF81E288
:104DC0008093EB0047CF813029F440E86BE085ED1C
:104DD00091E0F1CF833099F70E940A02DC0112962C
:104DE000ED90FC908E010F5F1F4F6801E114F104FC
:104DF00079F0D701ED91FC910680F781E02DB801A3
:104E0000C7010995080F111DF701E084F184EECF69
:104E1000D8011C92F60101900020E9F73197BF01FB
:104E20006C197D0940E0C601C6CF6FEB71E0FB0154
:104E3000449150E080E80E94C60109CF973009F400
:104E4000BECF983021F481E08093F10000CF9930FB
:104E500009F0FDCE837009F0B2CFEDE0F1E081E022
:104E600031E096E32191222371F08093E9003093A1
:104E7000EB00DF0111972C912093EC009093ED0053
:104E80008F5F873079F78EE78093EA001092EA000F
:104E90008F898093C902DBCE8B8D9C8D1092E900A7
:104EA00010929D0210929C0290939B0280939A0212
:104EB000898D811192C08E899D89913A49F4813200
:104EC00009F07DCF47E050E067E171E080E0B3CFCB
:104ED000913209F074CF833269F48F89988DB0E0F4
:104EE000A0E08093130190931401A0931501B09357
:104EF0001601ADCE803269F48091E80082FFFCCFCC
:104F000067E087E191E00E94FD018BEF8093E8006C
:104F10009ECE823209F09BCE8F8980931E01EEEFE8
:104F2000FFE7859194918B3F9C4D51F1E0E0F8E0D3
:104F30008091170190911801A0911901B0911A0167
:104F4000803B9440A105B105F1F480911E0180FDE4
:104F50001AC0EE3F8AE0F80789F587E797E7918363
:104F600080838091600080939E0288E19BE00FB671
:104F7000F894A895809360000FBE9093600067CE70
:104F8000EEEFFAE0D5CF808191818737974709F01E
:104F90005ECEA895809160008861809360008091CA
:104FA0009E0280936000EE3F2AE0F20789F0809134
:104FB000FE0A9091FF0A9183808349CE808191817E
:104FC0008737980751F29093FF0A8093FE0AC5CF66
:104FD0001092FF0A1092FE0A3ACE0E940A02DC01E9
:104FE00012960D911C910115110509F4E8CED80116
:104FF000ED91FC910190F081E02DBE016B5E7F4F41
:10500000C8010995811123CEF80100851185EBCFE8
:10501000181619060CF41BCED2CEF1E0FF12BECE4C
:1050200063EC71E004CF1F920F920FB60F92112420
:105030002F933F938F939F93AF93BF93809186025B
:1050400090918702A0918802B091890230918502E7
:1050500023E0230F2D3758F50196A11DB11D209394
:1050600085028093860290938702A0938802B09372
:10507000890280918A0290918B02A0918C02B0915A
:105080008D020196A11DB11D80938A0290938B021F
:10509000A0938C02B0938D02BF91AF919F918F919D
:1050A0003F912F910F900FBE0F901F90189526E8FB
:1050B000230F0296A11DB11DD2CF1F920F920FB6E2
:1050C0000F9211242F933F934F935F936F937F938E
:1050D0008F939F93AF93BF93EF93FF938091B9000A
:1050E000887F803609F44AC0F0F5883209F4A7C0F9
:1050F00018F5803109F49BC0B8F4882309F4F9C08D
:10510000883009F494C0FF91EF91BF91AF919F91C6
:105110008F917F916F915F914F913F912F910F9060
:105120000FBE0F901F901895883109F488C0803207
:1051300051F78093EE0214C0803409F49DC040F40E
:105140008033B9F38833F9F68093EE0285ECB0C072
:10515000803509F485C0883509F496C0883499F6FD
:105160000E942B10D0CF883909F48CC038F58837CD
:1051700029F050F4883611F0803729F683E08093C7
:10518000F0021092840257C0883809F47BC080393D
:1051900019F0803809F0B7CF80918402803208F08E
:1051A00071C0E091840281E08E0F8093840280912F
:1051B000BB00F0E0EC59FD4F80833DC0803B39F0EF
:1051C000E0F4803A09F479C0883A09F09CCF84E091
:1051D0008093F0021092610210926002E0915E02F0
:1051E000F0915F0209958091600281110FC081E00A
:1051F0008093600210923E0209C0803C09F4A6CF61
:10520000883C09F4A3CF883B09F07DCFE09161028F
:1052100081E08E0F80936102F0E0E25CFD4F8081BF
:105220008093BB00909161028091600229C08091BF
:10523000CB028093BB0085EC8093BC0064CF90913F
:10524000ED028091EC02981758F5E091ED0281E0B3
:105250008E0F8093ED02F0E0E453FD4F8081E9CFA3
:10526000E091ED0281E08E0F8093ED028091BB0012
:10527000F0E0E453FD4F80839091ED028091EC02C9
:105280009817C8F285E8D8CFE091ED0281E08E0F43
:105290008093ED028091BB00F0E0E453FD4F8083EA
:1052A0008091EF0281115CCF81E08093CA0284EA91
:1052B0008093BC001092F00226CF85EC8093BC0056
:1052C0001092F00280918402803230F4E0918402E6
:1052D000F0E0EC59FD4F10826091840270E0E091A3
:1052E0006202F091630284E692E0099510928402D2
:1052F0000ACF1092EE0234CF1F920F920FB60F9288
:1053000011242F933F934F935F936F937F938F93CA
:105310009F93AF93BF93EF93FF938091DB01803115
:1053200018F18091B40281110EC080913901882357
:1053300021F08091B002882321F00E947B08109216
:10534000B0021092DB01FF91EF91BF91AF919F915D
:105350008F917F916F915F914F913F912F910F901E
:105360000FBE0F901F9018958091DB018F5F809387
:10537000DB01E9CF109221031092200388EE93E025
:10538000A0E0B0E08093220390932303A093240332
:10539000B093250328EA31E030931F0320931E03C6
:1053A0002FEF3FEF30932B0320932A0310927103CA
:1053B000109270038093720390937303A09374030D
:1053C000B09375038AEB91E090936F0380936E0323
:1053D000E6E5F4E08FEF1086818712863B9694E035
:1053E000ED38F907C1F7E5E1F4E012821382349653
:1053F00084E0E134F807C9F7EEEDF3E085E194E0ED
:1054000021E01082248335968E179F07D1F7EAE7B3
:10541000F3E084E613821482158216821782108AC2
:10542000118A828B838B749693E0EE3DF90791F796
:105430000895CF93DF9300D000D0CDB7DEB7789436
:1054400084B5826084BD84B5816084BD85B5826089
:1054500085BD85B5816085BD80916E00816080933A
:105460006E001092810080918100826080938100A3
:1054700080918100816080938100809180008160B3
:105480008093800080919100826080939100809150
:105490009100816080939100809190008160809361
:1054A00090008091C10084608093C1008091C10010
:1054B00082608093C1008091C10081608093C100AF
:1054C0008091C30081608093C3008091C00082609E
:1054D0008093C0008091C20081608093C20080915F
:1054E0007A00846080937A0080917A008260809351
:1054F0007A0080917A00816080937A0080917A00AE
:10550000806880937A001092C9021092A1021092D2
:10551000A0028091D70081608093D70080EA8093B9
:10552000D80089B5806189BD89B5826089BD09B41B
:1055300000FEFDCF61E070E080E090E00E94980303
:105540008091D8008F7C80618093D8008091E000AA
:10555000807F8093E0008091E1008E7E8093E10067
:105560008DE08093E200559A209A5D98289880916A
:10557000A802811113C01092A3021092A2028BEE16
:1055800091E09093A5028093A40284E390E090932D
:10559000A7028093A60281E08093A8020E940908D6
:1055A00062EA72E00E944D070E9402128090270179
:1055B00090902801A0902901B0902A0160912F01BC
:1055C00070913001072E000C880B990B0E94A42EBD
:1055D000A50194010E94032F0E9490316B017093EA
:1055E000300160932F0160912B0170912C01072EE7
:1055F000000C880B990B0E94A42EA50194010E9417
:10560000032F0E94903170932C0160932B014091E5
:105610003101509132019601D6010E94BF326B01D7
:105620007C019A01DA010E94BF326C0D7D1D8E1D36
:105630009F1D0E94A42E0E9447320E9490317093B9
:1056400026016093250170932401609323017093D8
:105650002201609321017093200160931F018FEF5D
:105660009FEF90932B0380932A0381E090E0A0E0CA
:10567000B0E08093220390932303A0932403B0937C
:10568000250380E094E1909383048093820480E07A
:105690009FE0909385048093840484E080938B043E
:1056A00082E080938A044FEF60E08EE893E00E94EE
:1056B000630A2FEF4FEF6FEF84E00E94EB0AF8943C
:1056C0001092800010928100109285001092840048
:1056D0008FE79EE3909389008093880089E0809310
:1056E000810080916F00826080936F007894AA247B
:1056F000A394B12C21E4822E24E0922E772473947B
:1057000004E111E00E94330E8091B50281117EC048
:1057100085E1C82E84E0D82EF12CE12CF60182819F
:105720009381992309F4E3C0811133C08E2DEE20BB
:1057300071F1F8E0EF16F10458F48150950101C0C1
:10574000220F8A95EAF780914104822B80934104CD
:105750001093B00223E0E216F104C8F4F701EE5C06
:10576000FE4F6080069DF0011124E658FC4F8189B0
:1057700081110DC04FEF60E0CF010E94630A6110FC
:10578000ABC02FEF4FEF6FEF80E00E94EB0AF60106
:105790007282FFEFEF1AFF0A24E0C20ED11C3BE039
:1057A000E316F10409F0BACF80911704882371F150
:1057B0008091B30281112AC08091B102882331F017
:1057C0008AE08093B30280E00E94FD228091EC0386
:1057D000811103C081E00E9432098091E7038111A9
:1057E00003C082E00E9432098091F603811103C058
:1057F00083E00E9432098091E703811107C0809104
:10580000EC03811103C086E00E94320980913F01C0
:10581000882331F08091C702863911F40E94B908BB
:105820000E94211580913A0181118CC02091C502FE
:105830003091C6028091C3029091C402211540E4C8
:10584000340708F07DC041E0811550E4950708F465
:1058500040E0409339014091C20241112AC01093A7
:10586000B4022115E0E43E0714F02FEF3FE337FFC9
:1058700002C030E020E0B6E035952795BA95E1F713
:1058800030934304209342048115F0E49F0714F001
:105890008FEF9FE397FF02C090E080E0A6E0959530
:1058A0008795AA95E1F7909345048093440410925C
:1058B000B402FAE06F2E8EE193E00E94B702892BCA
:1058C00009F43DC18EE193E00E9475028334E9F54D
:1058D00081E00E94FD22EFCF4FEF60E081E00E9467
:1058E000D40A4FEF62E082E00E94D40A50CF8823AE
:1058F00009F44FCF8E2DEE20A9F0883070F481503E
:10590000950102C0220F331F8A95E2F7C9018095E5
:10591000909141048923809341041093B002F601D1
:10592000128237CF8091B302811106C083E00E94BA
:105930001D0B1092B302F3CF8A30D9F38150F7CF09
:1059400041E087CF10933901B4CF843709F0A5C067
:105950000E94B9086B017C01AC019B010E948B3253
:10596000882349F088EC91E00E94D10C84ED91E00D
:105970000E94D10CA0CF16012701E89457F82FEF11
:105980003FEF4FE75FE7C201B1010E948B32811107
:105990000DC02FEF3FEF4FE75FE7C201B1010E945B
:1059A0009D2E18161CF48CEC91E0DECF2FEF3FEF0C
:1059B0004FE75FE4C701B6010E942C3218161CF4B1
:1059C00080ED91E0D1CF2FEF3FEF4FE75FECC701C4
:1059D000B6010E949D2E87FDF3CF20E030E0A901A3
:1059E000C701B6010E949D2E87FF09C06DE28EE1BE
:1059F00093E00E944F02F7FAF094F7F8F0942AE04F
:105A000037ED43EA5BE3C701B6010E943B301B015F
:105A10002C010E9497316B017C010E94A22E9B01F8
:105A2000AC01C201B1010E943A301B012C014AE0D5
:105A3000C701B6010E94DE0C6EE28EE193E00E9487
:105A40004F0220E030E040E251E4C201B1010E9487
:105A5000032F1B012C010E9497316B01F12CE12CCB
:105A60004AE0C701B6010E94DE0CC701B6010E94E0
:105A7000A22E9B01AC01C201B1010E943A3020E08C
:105A800030E040E251E40E94032F0E94973190E001
:105A900080E04AE00E94DE0C69CF8A3509F041C0FF
:105AA0008EE193E00E947502893589F40E94B80462
:105AB000F62E0E94B8047C836B838F2D90E0BE018C
:105AC0006D5F7F4F880F991F0E946310F4CE83345F
:105AD000A9F4F12CE12CCC24CA94DC2CDA82C98202
